:10000000F8FF00201104000077B9000077B9000064
:1000100077B9000077B9000077B9000077B9000020
:1000200077B9000077B9000077B9000077B9000010
:1000300077B9000077B9000077B9000077B9000000
:1000400077B9000077B9000077B9000077B90000F0
:10040000FFFFFFFFFFFFFFFFFFFFFFFFFEFFFFFFFD
:1004100062B612F063FAFEE7FFFFFFFFFFFFFFFF88
:10042000FFFFFFFFFFFFFFFFFFFFFFFFFFFFFFFFDC
:10043000FFFFFFFFFFFFFFFFFFFFFFFFFFFFFFFFCC
:10044000FFFFFFFFFFFFFFFFFFFFFFFFFFFFFFFFBC
:10045000FFFFFFFFFFFFFFFFFBF3EBE3DBD3CBC3AC
:10046000BBB3ABA39B938B837C746C645C544C4494
:100470003C342C241C140C0400000000000000007C
:10048000000000000000000000000000000000006C
:10049000000000000000000000000000000000005C
:1004A000000000000000000000000000000000004C
:1004B0000000000000000000FFFFFFFFFFFFFFFF44
:1004C000FFFFFFFFFFFFFFFFFFFFFFFFFFFFFFFF3C
:1004D000FFFFFFFFFFFFFFFFFFFFFFFFFFFFFFFF2C
:1004E000FFFFFFFFFFFFFFFFFFFFFFFFFFFFFFFF1C
:1004F000FFFFFFFFFFFFFFFFFFFFFFFEF4EAE0D675
:10050000CCC1B7ADA3998F857A70665C52483E33F3
:10051000291F150B01000000000000000000000072
:1005200000000000000000000000000000000000CB
:1005300000000000000000000000000000000000BB
:1005400000000000000000000000000000000000AB
:100550000000000000000000FFFFFFFFFFFFFFFFA3
:10056000FFFFFFFFFFFFFFFFFFFFFFFFFFFFFFFF9B
:10057000FFFFFFFFFFFFFFFFFFFFFFFFFFFFFFFF8B
:10058000FFFFFFFFFFFFFFFFFFFFFFFFFFFFFFFF7B
:10059000FFFFFFFFFFFFFFFFFFFFFFFFFFFFFFF674
:1005A000E8DACCBEB0A29486796B5D4F4133251753
:1005B0000900000000000000000000000000000032
:1005C000000000000000000000000000000000002B
:1005D000000000000000000000000000000000001B
:1005E000000000000000000000000000000000000B
:1005F0000000000000000000FFFFFFFFFFFFFFFF03
:10060000FFFFFFFFFFFFFFFFFFFFFFFFFFFFFFFFFA
:10061000FFFFFFFFFFFFFFFFFFFFFFFFFFFFFFFFEA
:10062000FFFFFFFFFFFFFFFFFFFFFFFFFFFFFFFFDA
:10063000FFFFFFFFFFFFFFFFFFFFFFFFFFFFFFFFCA
:10064000FFFFFAE4CEB7A18B745E48311B050000B2
:10065000000000000000000000000000000000009A
:10066000000000000000000000000000000000008A
:10067000000000000000000000000000000000007A
:10068000000000000000000000000000000000006A
:100690000000000000000000FFFFFFFFFFFFFFFF62
:1006A000FFFFFFFFFFFFFFFFFFFFFFFFFFFFFFFF5A
:1006B000FFFFFFFFFFFFFFFFFFFFFFFFFFFFFFFF4A
:1006C000FFFFFFFFFFFFFFFFFFFFFFFFFFFFFFFF3A
:1006D000FFFFFFFFFFFFFFFFFFFFFFFFFFFFFFFF2A
:1006E000FFFFFFFFFFFFD39B642C00000000000012
:1006F00000000000000000000000000000000000FA
:1007000000000000000000000000000000000000E9
:1007100000000000000000000000000000000000D9
:1007200000000000000000000000000000000000C9
:1007300000000000000000000000000000000000B9
:1007400000000000000000000000000000000000A9
:100750000000000000000000000000000000000099
:100760000000000000000000000000000000000089
:100770000000000000000000000000000000000079
:100780000000000000000048B7FFFFFFFFFFFFFF71
:10079000FFFFFFFFFFFFFFFFFFFFFFFFFFFFFFFF69
:1007A000FFFFFFFFFFFFFFFFFFFFFFFFFFFFFFFF59
:1007B000FFFFFFFFFFFFFFFFFFFFFFFFFFFFFFFF49
:1007C000FFFFFFFFFFFFFFFFFFFFFFFFFFFFFFFF39
:1007D000FFFFFFFFFFFFFFFF000000000000000021
:1007E0000000000000000000000000000000000009
:1007F00000000000000000000000000000000000F9
:1008000000000000000000000000000000000000E8
:1008100000000000000000000000000000000000D8
:10082000000000021E3A56728DA9C5E1FDFFFFFFD0
:10083000FFFFFFFFFFFFFFFFFFFFFFFFFFFFFFFFC8
:10084000FFFFFFFFFFFFFFFFFFFFFFFFFFFFFFFFB8
:10085000FFFFFFFFFFFFFFFFFFFFFFFFFFFFFFFFA8
:10086000FFFFFFFFFFFFFFFFFFFFFFFFFFFFFFFF98
:10087000FFFFFFFFFFFFFFFF000000000000000080
:100880000000000000000000000000000000000068
:100890000000000000000000000000000000000058
:1008A0000000000000000000000000000000000048
:1008B0000000000000000000000000000000000038
:1008C00008182838485868788797A7B7C7D7E7F730
:1008D000FFFFFFFFFFFFFFFFFFFFFFFFFFFFFFFF28
:1008E000FFFFFFFFFFFFFFFFFFFFFFFFFFFFFFFF18
:1008F000FFFFFFFFFFFFFFFFFFFFFFFFFFFFFFFF08
:10090000FFFFFFFFFFFFFFFFFFFFFFFFFFFFFFFFF7
:10091000FFFFFFFFFFFFFFFF0000000000000000DF
:1009200000000000000000000000000000000000C7
:1009300000000000000000000000000000000000B7
:1009400000000000000000000000000000000000A7
:10095000000000000000000000000000000A162156
:100960002C37424D58646F7A85909BA7B2BDC8D38F
:10097000DEE9F5FFFFFFFFFFFFFFFFFFFFFFFFFFC8
:10098000FFFFFFFFFFFFFFFFFFFFFFFFFFFFFFFF77
:10099000FFFFFFFFFFFFFFFFFFFFFFFFFFFFFFFF67
:1009A000FFFFFFFFFFFFFFFFFFFFFFFFFFFFFFFF57
:1009B000FFFFFFFFFFFFFFFF00000000000000003F
:1009C0000000000000000000000000000000000027
:1009D0000000000000000000000000000000000017
:1009E0000000000000000000000000000000000007
:1009F000000000000000000000030C141D252E372D
:100A00003F485059616A737B848C959EA6AFB7C0EE
:100A1000C8D1DAE2EBF3FCFFFFFFFFFFFFFFFFFFB0
:100A2000FFFFFFFFFFFFFFFFFFFFFFFFFFFFFFFFD6
:100A3000FFFFFFFFFFFFFFFFFFFFFFFFFFFFFFFFC6
:100A4000FFFFFFFFFFFFFFFFFFFFFFFFFFFFFFFFB6
:100A5000FFFFFFFFFFFFFFFF00000000000000009E
:100A60000000000000000000000000000000000086
:100A70000000000000000000000000000000000076
:100A80000000000000000000000000000000000066
:100A9000000000000000060C131A21282F363D44E8
:100AA0004B525960676E757C838A91989FA6ADB44E
:100AB000BBC2C9D0D7DEE5ECF3F9FFFFFFFFFFFFB4
:100AC000FFFFFFFFFFFFFFFFFFFFFFFFFFFFFFFF36
:100AD000FFFFFFFFFFFFFFFFFFFFFFFFFFFFFFFF26
:100AE000FFFFFFFFFFFFFFFFFFFFFFFFFFFFFFFF16
:100AF000FFFFFFFFFFFFFFFF0000000000000000FE
:100B000000000000000000000000000000000000E5
:100B100000000000000000000000000000000000D5
:100B200000000000000000000000000000000000C5
:100B3000000001070D13191F252A30363C42484E8C
:100B400053595F656B71777D82888E949AA0A6ACAD
:100B5000B1B7BDC3C9CFD5DAE0E6ECF2F8FEFFFFCE
:100B6000FFFFFFFFFFFFFFFFFFFFFFFFFFFFFFFF95
:100B7000FFFFFFFFFFFFFFFFFFFFFFFFFFFFFFFF85
:100B8000FFFFFFFFFFFFFFFFFFFFFFFFFFFFFFFF75
:100B9000FFFFFFFFFFFFFFFF00000000000000005D
:100BA0000000000000000000000000000000000045
:100BB0000000000000000000000000000000000035
:100BC0000000000000000000000000000000000322
:100BD000080D12181D22272C31363B40454A4F5430
:100BE000595F64696E73787D82878C91969BA0A60D
:100BF000ABB0B5BABFC4C9CED3D8DDE2E7EDF2F7EA
:100C0000FCFFFFFFFFFFFFFFFFFFFFFFFFFFFFFFF7
:100C1000FFFFFFFFFFFFFFFFFFFFFFFFFFFFFFFFE4
:100C2000FFFFFFFFFFFFFFFFFFFFFFFFFFFFFFFFD4
:100C3000FFFFFFFFFFFFFFFF0000000000000000BC
:100C400000000000000000000000000000000000A4
:100C50000000000000000000000000000000000094
:100C600000000000000000000000000005090E1256
:100C7000171B2024292D31363A3F43484C51555AF1
:100C80005E62676B7074797D82868B8F94989DA16C
:100C9000A5AAAEB3B7BCC0C5C9CED2D6DBDFE4E8E7
:100CA000EDF1F6FAFFFFFFFFFFFFFFFFFFFFFFFF82
:100CB000FFFFFFFFFFFFFFFFFFFFFFFFFFFFFFFF44
:100CC000FFFFFFFFFFFFFFFFFFFFFFFFFFFFFFFF34
:100CD000FFFFFFFFFFFFFFFF00000000000000001C
:100CE0000000000000000000000000000000000004
:100CF00000000000000000000000000000000000F4
:100D0000000000000000000002060A0E12161A1E63
:100D100022262A2E32363A3E42464A4E52565A5ED3
:100D200062666A6E72767A7E8185898D9195999DCB
:100D3000A1A5A9ADB1B5B9BDC1C5C9CDD1D5D9DDC3
:100D4000E1E5E9EDF1F5F9FDFFFFFFFFFFFFFFFF33
:100D5000FFFFFFFFFFFFFFFFFFFFFFFFFFFFFFFFA3
:100D6000FFFFFFFFFFFFFFFFFFFFFFFFFFFFFFFF93
:100D7000FFFFFFFFFFFFFFFF00000000000000007B
:100D80000000000000000000000000000000000063
:100D90000000000000000000000000000000000053
:100DA000000000000003070B0E1215191D20242758
:100DB0002B2F3236393D4144484B4F53565A5D61D3
:100DC00065686C6F73777A7E8185888C9093979A2B
:100DD0009EA2A5A9ACB0B4B7BBBEC2C6C9CDD0D483
:100DE000D8DBDFE2E6EAEDF1F4F8FCFFFFFFFFFFFE
:100DF000FFFFFFFFFFFFFFFFFFFFFFFFFFFFFFFF03
:100E0000FFFFFFFFFFFFFFFFFFFFFFFFFFFFFFFFF2
:100E1000FFFFFFFFFFFFFFFF0000000000000000DA
:100E200000000000000000000000000000000000C2
:100E300000000000000000000000000000000000B2
:100E4000000104080B0E1215181B1F2225292C2F38
:100E50003236393C404346494D5053565A5D6064E2
:100E6000676A6D7174777B7E8184888B8E9295988A
:100E70009B9FA2A5A9ACAFB2B6B9BCBFC3C6C9CD32
:100E8000D0D3D6DADDE0E4E7EAEDF1F4F7FBFEFFDC
:100E9000FFFFFFFFFFFFFFFFFFFFFFFFFFFFFFFF62
:100EA000FFFFFFFFFFFFFFFFFFFFFFFFFFFFFFFF52
:100EB000FFFFFFFFFFFFFFFF00000000000000003A
:100EC0000000000000000000000000000000000022
:100ED000000000000000000000000000000002050B
:100EE000080B0E1114171B1E2124272A2D30333610
:100EF000393C3F4245484B4E5154575A5D606366FA
:100F0000696C6F7275787B7E8184878A8D909396E9
:100F1000999C9FA2A5A8ABAEB1B4B7BABDC0C3C6D9
:100F2000C9CCCFD2D5D8DBDEE1E4E8EBEEF1F4F7C3
:100F3000FAFDFFFFFFFFFFFFFFFFFFFFFFFFFFFFC8
:100F4000FFFFFFFFFFFFFFFFFFFFFFFFFFFFFFFFB1
:100F5000FFFFFFFFFFFFFFFF000000000000000099
:100F60000000000000000000000000000000000081
:100F700000000000000000000000010306090C0F43
:100F80001114171A1D1F2225282A2D303336383BFD
:100F90003E414446494C4F5154575A5D5F62656823
:100FA0006B6D707376797B7E818486898C8F929449
:100FB000979A9DA0A2A5A8ABAEB0B3B6B9BBBEC16F
:100FC000C4C7C9CCCFD2D5D7DADDE0E2E5E8EBEE95
:100FD000F0F3F6F9FCFEFFFFFFFFFFFFFFFFFFFF4F
:100FE000FFFFFFFFFFFFFFFFFFFFFFFFFFFFFFFF11
:100FF000FFFFFFFFFFFFFFFF0000000000000000F9
:1010000000000000000000000000000000000000E0
:1010100000000000000000020407090C0F11141664
:10102000191C1E212326292B2E303336383B3D40F8
:101030004345484A4D505255575A5C5F6264676950
:101040006C6F717476797C7E818386898B8E9093A8
:1010500096989B9DA0A3A5A8AAADAFB2B5B7BABC00
:10106000BFC2C4C7C9CCCFD1D4D6D9DCDEE1E3E658
:10107000E9EBEEF0F3F6F8FBFDFFFFFFFFFFFFFFEC
:10108000FFFFFFFFFFFFFFFFFFFFFFFFFFFFFFFF70
:10109000FFFFFFFFFFFFFFFF000000000000000058
:1010A0000000000000000000000000000000000040
:1010B000000000000305070A0C0F111416181B1D71
:1010C00020222527292C2E313336383A3D3F424401
:1010D00047494B4E505355575A5C5F616466686B85
:1010E0006D70727577797C7E818386888A8D8F9208
:1010F0009497999B9EA0A3A5A8AAACAFB1B4B6B88B
:10110000BBBDC0C2C5C7C9CCCED1D3D6D8DADDDF0E
:10111000E2E4E7E9EBEEF0F3F5F8FAFCFFFFFFFF9E
:10112000FFFFFFFFFFFFFFFFFFFFFFFFFFFFFFFFCF
:10113000FFFFFFFFFFFFFFFF0000000000000000B7
:10114000000000000000000000000000000000009F
:10115000010306080A0D0F111316181A1C1F21236C
:1011600026282A2C2F313336383A3C3F4143454814
:101170004A4C4F515355585A5C5E616365686A6CBE
:101180006E717375787A7C7E818385878A8C8E9167
:101190009395979A9C9EA1A3A5A7AAACAEB0B3B510
:1011A000B7BABCBEC0C3C5C7C9CCCED0D3D5D7D9BA
:1011B000DCDEE0E3E5E7E9ECEEF0F2F5F7F9FCFE62
:1011C000FFFFFFFFFFFFFFFFFFFFFFFFFFFFFFFF2F
:1011D000FFFFFFFFFFFFFFFF000000000000000017
:1011E00000000000000000000000000000020406F3
:1011F000080B0D0F111315171A1C1E202224262967
:101200002B2D2F313335383A3C3E40424547494B30
:101210004D4F515456585A5C5E60636567696B6DFB
:101220006F727476787A7C7E81838587898B8D90C6
:10123000929496989A9C9FA1A3A5A7A9ABAEB0B291
:10124000B4B6B8BABDBFC1C3C5C7CACCCED0D2D45C
:10125000D6D9DBDDDFE1E3E5E8EAECEEF0F2F4F726
:10126000F9FBFDFFFFFFFFFFFFFFFFFFFFFFFFFF9A
:10127000FFFFFFFFFFFFFFFF000000000000000076
:1012800000000000000000000001030507090B0D2D
:101290000F11131517191B1D1F21232527292B2D6E
:1012A0002F313335383A3C3E40424446484A4C4E52
:1012B00050525456585A5C5E60626466686A6C6E3E
:1012C00070727476787A7C7E81838587898B8D8F26
:1012D00091939597999B9D9FA1A3A5A7A9ABADAF0E
:1012E000B1B3B5B7B9BBBDBFC1C3C5C7CACCCED0FA
:1012F000D2D4D6D8DADCDEE0E2E4E6E8EAECEEF0DE
:10130000F2F4F6F8FAFCFEFFFFFFFFFFFFFFFFFF1E
:10131000FFFFFFFFFFFFFFFF0000000000000000D5
:1013200000000000000002030507090B0D0F111358
:101330001517191B1C1E20222426282A2C2E303279
:10134000343537393B3D3F41434547494B4D4E507E
:10135000525456585A5C5E6062646667696B6D6F82
:1013600071737577797B7D7F80828486888A8C8E85
:101370009092949698999B9D9FA1A3A5A7A9ABAD88
:10138000AFB1B2B4B6B8BABCBEC0C2C4C6C8CACB8C
:10139000CDCFD1D3D5D7D9DBDDDFE1E3E4E6E8EA91
:1013A000ECEEF0F2F4F6F8FAFCFDFFFFFFFFFFFFB2
:1013B000FFFFFFFFFFFFFFFF000000000000000035
:1013C000000000020406080A0B0D0F111315161871
:1013D0001A1C1E2021232527292A2C2E3032343591
:1013E00037393B3D3F40424446484A4B4D4F5153AD
:1013F0005556585A5C5E6061636567696A6C6E70C9
:1014000072747577797B7D7F80828486888A8B8DE4
:101410008F91939596989A9C9E9FA1A3A5A7A9AA00
:10142000ACAEB0B2B4B5B7B9BBBDBFC0C2C4C6C81C
:10143000CACBCDCFD1D3D5D6D8DADCDEDFE1E3E538
:10144000E7E9EAECEEF0F2F4F5F7F9FBFDFFFFFF58
:10145000FFFFFFFFFFFFFFFF000000000000000193
:10146000030506080A0C0D0F11131416181A1B1D7C
:101470001F2122242627292B2D2E303234353739AF
:101480003B3C3E4042434547494A4C4E50515355E0
:1014900057585A5C5E5F61636466686A6B6D6F7112
:1014A00072747678797B7D7F8082848687898B8D44
:1014B0008E9092949597999B9C9EA0A1A3A5A7A876
:1014C000AAACAEAFB1B3B5B6B8BABCBDBFC1C3C4A8
:1014D000C6C8CACBCDCFD1D2D4D6D8D9DBDDDEE0D9
:1014E000E2E4E5E7E9EBECEEF0F2F3F5F7F9FAFC0C
:1014F000FEFFFFFFFFFFFFFF0000000002030507E4
:10150000080A0C0D0F1112141617191B1C1E20218E
:10151000232526282A2B2D2F3032343537393A3CD3
:101520003E3F4143444648494B4D4E505253555718
:10153000585A5C5D5F6162646667696B6C6E70715E
:10154000737576787A7B7D7F8082848587898A8CA3
:101550008E8F9193949698999B9D9EA0A2A3A5A7E8
:10156000A8AAACADAFB1B2B4B6B7B9BBBCBEC0C12E
:10157000C3C5C6C8CACBCDCFD0D2D4D5D7D9DADC73
:10158000DEDFE1E3E4E6E8E9EBEDEEF0F2F3F5F7B8
:10159000F8FAFCFDFFFFFFFF0102040607090A0C31
:1015A0000E0F1112141617191A1C1E1F21222425A2
:1015B00027292A2C2D2F3132343537393A3C3D3FFB
:1015C0004142444547494A4C4D4F50525455575853
:1015D0005A5C5D5F6062646567686A6C6D6F7072AB
:1015E000747577787A7C7D7F8082838587888A8B03
:1015F0008D8F9092939597989A9B9D9FA0A2A3A55B
:10160000A7A8AAABADAFB0B2B3B5B6B8BABBBDBEB2
:10161000C0C2C3C5C6C8CACBCDCED0D2D3D5D6D80A
:10162000DADBDDDEE0E1E3E5E6E8E9EBEDEEF0F163
:10163000F3F5F6F8F9FBFDFE0608090B0C0E0F1189
:1016400012141517181A1B1D1E20222325262829BF
:101650002B2C2E2F3132343537383A3C3D3F404227
:1016600043454648494B4C4E4F5152545557595A91
:101670005C5D5F606263656668696B6C6E6F7173F9
:10168000747677797A7C7D7F808283858688898B62
:101690008C8E909193949697999A9C9D9FA0A2A3CB
:1016A000A5A6A8AAABADAEB0B1B3B4B6B7B9BABC33
:1016B000BDBFC0C2C3C5C7C8CACBCDCED0D1D3D49D
:1016C000D6D7D9DADCDDDFE1E2E4E5E7E8EAEBED05
:1016D000EEF0F1F3F4F6F7F90B0C0E0F11121415EE
:1016E00017181A1B1C1E1F2122242527282A2B2DE0
:1016F0002E303132343537383A3B3D3E4041434459
:101700004647484A4B4D4E505153545657595A5CD0
:101710005D5E606163646667696A6C6D6F70727349
:10172000747677797A7C7D7F808283858688898BC1
:101730008C8D8F909293959698999B9C9E9FA1A239
:10174000A3A5A6A8A9ABACAEAFB1B2B4B5B7B8B9B2
:10175000BBBCBEBFC1C2C4C5C7C8CACBCDCECFD12A
:10176000D2D4D5D7D8DADBDDDEE0E1E3E4E5E7E8A3
:10177000EAEBEDEEF0F1F3F40F1112131516181950
:101780001B1C1D1F202223242627292A2B2D2E3007
:101790003133343537383A3B3C3E3F41424345468E
:1017A00048494B4C4D4F505253545657595A5B5D14
:1017B0005E606163646567686A6B6C6E6F7172739B
:1017C000757678797B7C7D7F808283848687898A21
:1017D0008C8D8E909193949597989A9B9C9E9FA1A7
:1017E000A2A4A5A6A8A9ABACADAFB0B2B3B4B6B72E
:1017F000B9BABCBDBEC0C1C3C4C5C7C8CACBCCCEB4
:10180000CFD1D2D4D5D6D8D9DBDCDDDFE0E2E3E43A
:10181000E6E7E9EAECEDEEF013151617191A1C1DB0
:101820001E20212224252628292A2C2D2F30313331
:1018300034353738393B3C3E3F40424344464748C5
:101840004A4B4C4E4F515253555657595A5B5D5E59
:1018500060616264656668696A6C6D6E70717374EC
:10186000757778797B7C7D7F808283848687888A80
:101870008B8C8E8F919293959697999A9B9D9E9F14
:10188000A1A2A4A5A6A8A9AAACADAEB0B1B3B4B5A7
:10189000B7B8B9BBBCBDBFC0C1C3C4C6C7C8CACB3B
:1018A000CCCECFD0D2D3D5D6D7D9DADBDDDEDFE1CF
:1018B000E2E3E5E6E8E9EAEC17181A1B1C1E1F2014
:1018C0002223242627282A2B2C2D2F303133343560
:1018D0003738393B3C3D3F40414244454648494A00
:1018E0004C4D4E50515254555657595A5B5D5E5FA0
:1018F000616263656667696A6B6C6E6F7072737440
:101900007677787A7B7C7E7F8081838485878889DF
:101910008B8C8D8F90919394959698999A9C9D9E7F
:10192000A0A1A2A4A5A6A8A9AAABADAEAFB1B2B31F
:10193000B5B6B7B9BABBBDBEBFC0C2C3C4C6C7C8BF
:10194000CACBCCCECFD0D2D3D4D5D7D8D9DBDCDD5F
:10195000DFE0E1E3E4E5E7E81B1C1D1F2021222472
:10196000252627292A2B2C2E2F3032333435373891
:10197000393A3C3D3E3F414243454647484A4B4C3D
:101980004D4F50515354555658595A5B5D5E5F60E8
:10199000626364666768696B6C6D6E707172737593
:1019A0007677797A7B7C7E7F80818384858688893F
:1019B0008A8C8D8E8F91929394969798999B9C9DEB
:1019C0009FA0A1A2A4A5A6A7A9AAABACAEAFB0B296
:1019D000B3B4B5B7B8B9BABCBDBEC0C1C2C3C5C641
:1019E000C7C8CACBCCCDCFD0D1D3D4D5D6D8D9DAED
:1019F000DBDDDEDFE0E2E3E41E1F212223242527D6
:101A000028292A2C2D2E2F30323334353738393AC5
:101A10003B3D3E3F40424344454748494A4B4D4E7B
:101A20004F50525354555658595A5B5D5E5F606132
:101A30006364656668696A6B6D6E6F7071737475E7
:101A40007678797A7B7C7E7F80818384858687899E
:101A50008A8B8C8E8F90919294959697999A9B9C55
:101A60009E9FA0A1A2A4A5A6A7A9AAABACADAFB00A
:101A7000B1B2B4B5B6B7B8BABBBCBDBFC0C1C2C4C1
:101A8000C5C6C7C8CACBCCCDCFD0D1D2D3D5D6D777
:101A9000D8DADBDCDDDEE0E1212224252627282937
:101AA0002B2C2D2E2F31323334353738393A3B3CFD
:101AB0003E3F40414244454647484A4B4C4D4E4FBD
:101AC00051525354555758595A5B5C5E5F6061627E
:101AD00064656667686A6B6C6D6E6F71727374753E
:101AE0007778797A7B7D7E7F8081828485868788FE
:101AF0008A8B8C8D8E9091929394959798999A9BBE
:101B00009D9E9FA0A1A3A4A5A6A7A8AAABACADAE7D
:101B1000B0B1B2B3B4B5B7B8B9BABBBDBEBFC0C13E
:101B2000C3C4C5C6C7C8CACBCCCDCED0D1D2D3D4FE
:101B3000D6D7D8D9DADBDDDE24252628292A2B2C96
:101B40002D2E3031323334353638393A3B3C3D3F37
:101B50004041424344454748494A4B4C4D4F505100
:101B6000525354565758595A5B5C5E5F60616263CA
:101B700064666768696A6B6D6E6F70717273757693
:101B80007778797A7B7D7E7F80818284858687885D
:101B9000898A8C8D8E8F9091929495969798999B27
:101BA0009C9D9E9FA0A1A3A4A5A6A7A8A9ABACADF0
:101BB000AEAFB0B2B3B4B5B6B7B8BABBBCBDBEBFBA
:101BC000C0C2C3C4C5C6C7C9CACBCCCDCECFD1D283
:101BD000D3D4D5D6D7D9DADB2728292A2B2C2E2FF8
:101BE0003031323334353638393A3B3C3D3E3F4074
:101BF00042434445464748494B4C4D4E4F50515245
:101C00005355565758595A5B5C5D5F606162636417
:101C1000656668696A6B6C6D6E6F707273747576E9
:101C20007778797A7C7D7E7F8081828385868788BC
:101C3000898A8B8C8D8F9091929394959697999A8F
:101C40009B9C9D9E9FA0A2A3A4A5A6A7A8A9AAAC61
:101C5000ADAEAFB0B1B2B3B4B6B7B8B9BABBBCBD34
:101C6000BFC0C1C2C3C4C5C6C7C9CACBCCCDCECF05
:101C7000D0D1D3D4D5D6D7D8292A2C2D2E2F303158
:101C8000323334353637393A3B3C3D3E3F404142B2
:101C90004344464748494A4B4C4D4E4F505153548C
:101CA00055565758595A5B5C5D5E60616263646566
:101CB000666768696A6B6D6E6F7071727374757642
:101CC00077787A7B7C7D7E7F80818283848587881C
:101CD000898A8B8C8D8E8F909192949596979899F6
:101CE0009A9B9C9D9E9FA1A2A3A4A5A6A7A8A9AAD2
:101CF000ABACAEAFB0B1B2B3B4B5B6B7B8B9BBBCAC
:101D0000BDBEBFC0C1C2C3C4C5C6C8C9CACBCCCD85
:101D1000CECFD0D1D2D3D5D62C2D2E2F30313233B9
:101D200034353637383A3B3C3D3E3F4041424344F0
:101D300045464748494A4B4C4E4F505152535455D3
:101D4000565758595A5B5C5D5E5F606263646566B6
:101D50006768696A6B6C6D6E6F7071727374767799
:101D600078797A7B7C7D7E7F80818283848586877B
:101D700088898B8C8D8E8F9091929394959697985D
:101D8000999A9B9C9D9FA0A1A2A3A4A5A6A7A8A940
:101D9000AAABACADAEAFB0B1B3B4B5B6B7B8B9BA23
:101DA000BBBCBDBEBFC0C1C2C3C4C5C7C8C9CACB06
:101DB000CCCDCECFD0D1D2D32E2F3031323334351B
:101DC000363738393A3B3C3D3F4041424344454633
:101DD0004748494A4B4C4D4E4F505152535455561B
:101DE0005758595A5B5C5D5E5F606162636465660B
:101DF0006768696B6C6D6E6F7071727374757677EE
:101E000078797A7B7C7D7E7F8081828384858687DA
:101E100088898A8B8C8D8E8F9091929394969798C7
:101E2000999A9B9C9D9E9FA0A1A2A3A4A5A6A7A8AA
:101E3000A9AAABACADAEAFB0B1B2B3B4B5B6B7B89A
:101E4000B9BABBBCBDBEBFC0C2C3C4C5C6C7C8C982
:101E5000CACBCCCDCECFD0D130313233343536377A
:101E600038393A3B3C3D3E3F40414243444546477A
:101E700048494A4B4C4D4E4F50515253545556576A
:101E800058595A5B5C5D5E5F60616263646566675A
:101E900068696A6B6C6D6E6F70717273747576774A
:101EA00078797A7B7C7D7E7F80818283848586873A
:101EB00088898A8B8C8D8E8F90919293949596972A
:101EC00098999A9B9C9D9E9FA0A1A2A3A4A5A6A71A
:101ED000A8A9AAABACADAEAFB0B1B2B3B4B5B6B70A
:101EE000B8B9BABBBCBDBEBFC0C1C2C3C4C5C6C7FA
:101EF000C8C9CACBCCCDCECF3233343536373839DA
:101F00003A3B3C3D3E3F40414243444546474849B9
:101F10004A4B4C4D4E4F4F505152535455565758B3
:101F2000595A5B5C5D5E5F606162636465666768A9
:101F3000696A6B6C6D6E6F6F7071727374757677A2
:101F400078797A7B7C7D7E7F808182838485868799
:101F500088898A8B8C8D8E8F909091929394959690
:101F60009798999A9B9C9D9E9FA0A1A2A3A4A5A689
:101F7000A7A8A9AAABACADAEAFB0B0B1B2B3B4B57F
:101F8000B6B7B8B9BABBBCBDBEBFC0C1C2C3C4C579
:101F9000C6C7C8C9CACBCCCD3435363738393A3B39
:101FA0003C3D3E3F40414243434445464748494A01
:101FB0004B4C4D4E4F5051525354545556575859FF
:101FC0005A5B5C5D5E5F60616263646566666768FC
:101FD000696A6B6C6D6E6F707172737475767777FA
:101FE00078797A7B7C7D7E7F8081828384858687F9
:101FF0008888898A8B8C8D8E8F90919293949596F8
:10200000979899999A9B9C9D9E9FA0A1A2A3A4A5F5
:10201000A6A7A8A9AAABABACADAEAFB0B1B2B3B4F2
:10202000B5B6B7B8B9BABBBCBCBDBEBFC0C1C2C3F0
:10203000C4C5C6C7C8C9CACB363738393A3B3C3D98
:102040003E3F3F404142434445464748494A4A4B48
:102050004C4D4E4F50515253545556565758595A4D
:102060005B5C5D5E5F606162626364656667686950
:102070006A6B6C6D6E6E6F70717273747576777853
:10208000797A7A7B7C7D7E7F808182838485858658
:102090008788898A8B8C8D8E8F909191929394955D
:1020A000969798999A9B9C9D9D9E9FA0A1A2A3A460
:1020B000A5A6A7A8A9A9AAABACADAEAFB0B1B2B363
:1020C000B4B5B5B6B7B8B9BABBBCBDBEBFC0C0C168
:1020D000C2C3C4C5C6C7C8C938393A3B3C3C3D3EFB
:1020E0003F40414243444545464748494A4B4C4D91
:1020F0004E4E4F50515253545556575758595A5B9C
:102100005C5D5E5F606061626364656667686969A3
:102110006A6B6C6D6E6F70717272737475767778AE
:10212000797A7B7B7C7D7E7F8081828384848586B7
:102130008788898A8B8C8D8D8E8F909192939495C0
:1021400096969798999A9B9C9D9E9F9FA0A1A2A3CB
:10215000A4A5A6A7A8A8A9AAABACADAEAFB0B1B1D3
:10216000B2B3B4B5B6B7B8B9BABABBBCBDBEBFC0DE
:10217000C1C2C3C3C4C5C6C73A3B3B3C3D3E3F405A
:1021800041424243444546474849494A4B4C4D4EDB
:102190004F5051515253545556575858595A5B5CE9
:1021A0005D5E5F5F60616263646566666768696AF9
:1021B0006B6C6D6D6E6F7071727374757576777808
:1021C000797A7B7C7C7D7E7F808182838384858617
:1021D0008788898A8A8B8C8D8E8F90919292939426
:1021E0009596979899999A9B9C9D9E9FA0A0A1A235
:1021F000A3A4A5A6A7A7A8A9AAABACADAEAEAFB045
:10220000B1B2B3B4B5B6B6B7B8B9BABBBCBDBDBE52
:10221000BFC0C1C2C3C4C4C53B3C3D3E3F404041BA
:102220004243444546464748494A4B4C4C4D4E4F25
:102230005051525253545556575858595A5B5C5D39
:102240005E5E5F60616263646465666768696A6A4E
:102250006B6C6D6E6F707071727374757676777863
:10226000797A7B7C7C7D7E7F808182838384858676
:10227000878889898A8B8C8D8E8F8F909192939489
:102280009595969798999A9B9B9C9D9E9FA0A1A19E
:10229000A2A3A4A5A6A7A7A8A9AAABACADADAEAFB3
:1022A000B0B1B2B3B3B4B5B6B7B8B9B9BABBBCBDC7
:1022B000BEBFBFC0C1C2C3C43D3E3F3F4041424319
:1022C00044444546474849494A4B4C4D4E4E4F5071
:1022D00051525353545556575859595A5B5C5D5E89
:1022E0005E5F6061626363646566676868696A6BA4
:1022F0006C6D6D6E6F7071727373747576777878BC
:10230000797A7B7C7D7D7E7F8081828283848586D5
:10231000878788898A8B8C8C8D8E8F9091929293EF
:10232000949596979798999A9B9C9C9D9E9FA0A107
:10233000A1A2A3A4A5A6A6A7A8A9AAABACACADAE22
:10234000AFB0B1B1B2B3B4B5B6B6B7B8B9BABBBB3A
:10235000BCBDBEBFC0C0C1C23E3F4041424243447B
:102360004546474748494A4B4B4C4D4E4F505051BC
:10237000525354545556575859595A5B5C5D5D5EDB
:102380005F6061626263646566666768696A6B6BF9
:102390006C6D6E6F70707172737474757677787916
:1023A000797A7B7C7D7D7E7F808182828384858635
:1023B000868788898A8B8B8C8D8E8F8F9091929354
:1023C00094949596979899999A9B9C9D9D9E9FA071
:1023D000A1A2A2A3A4A5A6A6A7A8A9AAABABACAD8F
:1023E000AEAFAFB0B1B2B3B4B4B5B6B7B8B8B9BAAE
:1023F000BBBCBDBDBEBFC0C14041414243444545D9
:1024000046474849494A4B4C4D4D4E4F5051515209
:102410005354555556575859595A5B5C5D5D5E5F2C
:10242000606161626364656566676869696A6B6C4F
:102430006D6D6E6F70717172737475757677787972
:10244000797A7B7C7D7D7E7F808182828384858694
:10245000868788898A8A8B8C8D8E8E8F90919292B6
:1024600093949596969798999A9A9B9C9D9E9E9FD9
:10247000A0A1A2A2A3A4A5A6A6A7A8A9AAAAABACFC
:10248000ADAEAEAFB0B1B2B2B3B4B5B6B6B7B8B91F
:10249000BABABBBCBDBEBEBF41424343444546473A
:1024A0004748494A4A4B4C4D4E4E4F505152525359
:1024B00054555556575859595A5B5C5D5D5E5F607F
:1024C0006061626364646566676868696A6B6B6CA7
:1024D0006D6E6F6F707172737374757676777879CD
:1024E0007A7A7B7C7D7E7E7F8081818283848585F4
:1024F00086878889898A8B8C8C8D8E8F909091921B
:102500009394949596979798999A9B9B9C9D9E9F40
:102510009FA0A1A2A2A3A4A5A6A6A7A8A9AAAAAB68
:10252000ACADADAEAFB0B1B1B2B3B4B5B5B6B7B88E
:10253000B8B9BABBBCBCBDBE42434445454647489A
:1025400049494A4B4C4C4D4E4F4F505152535354A6
:10255000555656575859595A5B5C5D5D5E5F6060D1
:1025600061626363646566676768696A6A6B6C6DFC
:102570006D6E6F7071717273747475767777787928
:102580007A7B7B7C7D7E7E7F808181828384858552
:1025900086878888898A8B8B8C8D8E8F8F9091927D
:1025A000929394959596979899999A9B9C9C9D9EA9
:1025B0009F9FA0A1A2A3A3A4A5A6A6A7A8A9A9AAD4
:1025C000ABACADADAEAFB0B0B1B2B3B3B4B5B6B7FE
:1025D000B7B8B9BABABBBCBD4444454647474849F9
:1025E0004A4A4B4C4D4D4E4F5050515253535455F7
:1025F0005656575859595A5B5C5C5D5E5F5F606127
:1026000062626364656566676869696A6B6C6C6D54
:102610006E6F6F7071727273747575767778787982
:102620007A7B7B7C7D7E7E7F8081818283848485B2
:1026300086878788898A8A8B8C8D8D8E8F909091E2
:10264000929393949596969798999A9A9B9C9D9D10
:102650009E9FA0A0A1A2A3A3A4A5A6A6A7A8A9A93E
:10266000AAABACACADAEAFAFB0B1B2B2B3B4B5B56E
:10267000B6B7B8B8B9BABBBB454646474848494A59
:102680004B4B4C4D4E4E4F50515152535454555646
:1026900057575859595A5B5C5C5D5E5F5F60616279
:1026A000626364656566676768696A6A6B6C6D6DAD
:1026B0006E6F7070717273737475767677787879DF
:1026C0007A7B7B7C7D7E7E7F808181828384848512
:1026D0008687878889898A8B8C8C8D8E8F8F909145
:1026E00092929394959596979898999A9A9B9C9D77
:1026F0009D9E9FA0A0A1A2A3A3A4A5A6A6A7A8A8AB
:10270000A9AAABABACADAEAEAFB0B1B1B2B3B4B4DD
:10271000B5B6B7B7B8B9B9BA46474748494A4A4BB8
:102720004C4C4D4E4F4F5051525253545455565796
:10273000575859595A5B5C5C5D5E5F5F60616162CE
:10274000636464656667676869696A6B6C6C6D6E03
:102750006E6F70717172737474757676777879793B
:102760007A7B7C7C7D7E7E7F808181828383848571
:102770008686878889898A8B8B8C8D8E8E8F9091A7
:102780009192939394959696979898999A9B9B9CDF
:102790009D9E9E9FA0A0A1A2A3A3A4A5A6A6A7A814
:1027A000A8A9AAABABACADADAEAFB0B0B1B2B3B34C
:1027B000B4B5B5B6B7B8B8B9474848494A4B4B4C19
:1027C0004D4D4E4F505051525253545555565757E8
:1027D0005859595A5B5C5C5D5E5E5F606161626323
:1027E0006364656666676868696A6B6B6C6D6D6E5D
:1027F0006F70707172727374747576777778797997
:102800007A7B7C7C7D7E7E7F8081818283838485D0
:102810008686878888898A8B8B8C8D8D8E8F8F900A
:10282000919292939494959697979899999A9B9C44
:102830009C9D9E9E9FA0A1A1A2A3A3A4A5A6A6A77E
:10284000A8A8A9AAAAABACADADAEAFAFB0B1B2B2B9
:10285000B3B4B4B5B6B7B7B84849494A4B4C4C4D78
:102860004E4E4F505051525353545555565757583A
:10287000595A5A5B5C5C5D5E5E5F60606162636377
:1028800064656566676768696A6A6B6C6C6D6E6EB5
:102890006F70717172737374757576777778797AF2
:1028A0007A7B7C7C7D7E7E7F808181828383848530
:1028B0008586878888898A8A8B8C8C8D8E8E8F906E
:1028C000919192939394959596979898999A9A9BAB
:1028D0009C9C9D9E9F9FA0A1A1A2A3A3A4A5A5A6E9
:1028E000A7A8A8A9AAAAABACACADAEAFAFB0B1B126
:1028F000B2B3B3B4B5B6B6B7494A4A4B4C4D4D4ED8
:102900004F4F50515152535354555556575758598C
:102910005A5A5B5C5C5D5E5E5F60606162626364CC
:1029200064656667676869696A6B6B6C6D6D6E6F0D
:102930006F70717172737474757676777878797A4E
:102940007A7B7C7C7D7E7E7F80818182838384858F
:10295000858687878889898A8B8B8C8D8E8E8F90D0
:1029600090919292939494959696979898999A9B11
:102970009B9C9D9D9E9F9FA0A1A1A2A3A3A4A5A552
:10298000A6A7A8A8A9AAAAABACACADAEAEAFB0B092
:10299000B1B2B2B3B4B5B5B64A4B4B4C4D4D4E4F38
:1029A0004F50515152535354555656575858595ADF
:1029B0005A5B5C5C5D5E5E5F606061626263646422
:1029C000656666676868696A6A6B6C6C6D6E6E6F67
:1029D0007070717272737474757676777878797AAC
:1029E0007A7B7C7C7D7E7E7F8081818283838485EF
:1029F000858687878889898A8B8B8C8D8D8E8F8F32
:102A00009091919293939495959697979899999A76
:102A10009B9B9C9D9D9E9F9FA0A1A1A2A3A3A4A5BB
:102A2000A5A6A7A7A8A9A9AAABACACADAEAEAFB0FE
:102A3000B0B1B2B2B3B4B4B54B4C4C4D4E4E4F5096
:102A400050515252535454555656575858595A5A31
:102A50005B5C5C5D5E5E5F5F606161626363646579
:102A6000656667676869696A6B6B6C6D6D6E6F6FC1
:102A70007071717273737475757677777879797A06
:102A80007B7B7C7D7D7E7F7F80808182828384844E
:102A9000858686878888898A8A8B8C8C8D8E8E8F96
:102AA0009090919292939494959696979898999ADB
:102AB0009A9B9C9C9D9E9E9FA0A0A1A1A2A3A3A423
:102AC000A5A5A6A7A7A8A9A9AAABABACADADAEAF6B
:102AD000AFB0B1B1B2B3B3B44C4D4D4E4F4F5050F7
:102AE000515252535454555656575858595A5A5B86
:102AF0005C5C5D5D5E5F5F606161626363646565D0
:102B00006667676868696A6A6B6C6C6D6E6E6F7019
:102B10007071727273747475757677777879797A63
:102B20007B7B7C7D7D7E7F7F8080818282838484AD
:102B3000858686878888898A8A8B8B8C8D8D8E8FF7
:102B40008F90919192939394959596979798989941
:102B50009A9A9B9C9C9D9E9E9FA0A0A1A2A2A3A38B
:102B6000A4A5A5A6A7A7A8A9A9AAABABACADADAED5
:102B7000AFAFB0B0B1B2B2B34D4D4E4F4F50515157
:102B80005253535454555656575858595A5A5B5BDA
:102B90005C5D5D5E5F5F6061616263636464656626
:102BA00066676868696A6A6B6B6C6D6D6E6F6F7073
:102BB0007171727273747475767677787879797AC0
:102BC0007B7B7C7D7D7E7F7F80808182828384840D
:102BD00085868687878889898A8B8B8C8D8D8E8E5A
:102BE0008F909091929293949495959697979899A7
:102BF000999A9B9B9C9D9D9E9E9FA0A0A1A2A2A3F3
:102C0000A4A4A5A5A6A7A7A8A9A9AAABABACACAD3F
:102C1000AEAEAFB0B0B1B2B24E4E4F5050515152B5
:102C200053535455555656575858595A5A5B5B5C2E
:102C30005D5D5E5F5F60606162626364646565667E
:102C400067676869696A6B6B6C6C6D6E6E6F7070CC
:102C500071717273737475757676777878797A7A1C
:102C60007B7B7C7D7D7E7F7F80808182828384846C
:102C700085858687878889898A8A8B8C8C8D8E8EBC
:102C80008F8F90919192939394949596969798980C
:102C9000999A9A9B9B9C9D9D9E9F9FA0A0A1A2A25A
:102CA000A3A4A4A5A5A6A7A7A8A9A9AAAAABACACAA
:102CB000ADAEAEAFAFB0B1B14F4F50505152525315
:102CC000535455555657575858595A5A5B5B5C5D83
:102CD0005D5E5F5F606061626263636465656667D5
:102CE000676868696A6A6B6B6C6D6D6E6F6F707028
:102CF00071727273737475757677777878797A7A7A
:102D00007B7B7C7D7D7E7F7F8080818282838484CB
:102D100085858687878888898A8A8B8C8C8D8D8E1D
:102D20008F8F90909192929394949595969797986F
:102D300098999A9A9B9C9C9D9D9E9F9FA0A0A1A2C2
:102D4000A2A3A4A4A5A5A6A7A7A8A8A9AAAAABAC14
:102D5000ACADADAEAFAFB0B04F5051515252535475
:102D60005455555657575858595A5A5B5B5C5D5DD8
:102D70005E5E5F606061616263636465656666672D
:102D8000686869696A6B6B6C6C6D6E6E6F6F707181
:102D900071727273747475757677777879797A7AD7
:102DA0007B7C7C7D7D7E7F7F80808182828383842B
:102DB00085858686878888898A8A8B8B8C8D8D8E7F
:102DC0008E8F9090919192939394949596969797D5
:102DD0009899999A9A9B9C9C9D9E9E9F9FA0A1A129
:102DE000A2A2A3A4A4A5A5A6A7A7A8A8A9AAAAAB7E
:102DF000ABACADADAEAEAFB05051515252535454D6
:102E000055555657575858595A5A5B5B5C5D5D5E2D
:102E10005E5F606061616263636464656666676784
:102E20006869696A6A6B6C6C6D6D6E6F6F707071DA
:102E300071727373747475767677777879797A7A34
:102E40007B7C7C7D7D7E7F7F80808182828383848A
:102E50008585868687888889898A8B8B8C8C8D8EE0
:102E60008E8F8F909091929293939495959696973A
:102E7000989899999A9B9B9C9C9D9E9E9F9FA0A190
:102E8000A1A2A2A3A4A4A5A5A6A7A7A8A8A9AAAAE7
:102E9000ABABACADADAEAEAF515152535354545534
:102EA000565657575858595A5A5B5B5C5D5D5E5E83
:102EB0005F606061616262636464656566676768DC
:102EC0006869696A6B6B6C6C6D6E6E6F6F70717137
:102ED00072727373747575767677787879797A7B90
:102EE0007B7C7C7D7D7E7F7F8080818282838384EA
:102EF0008485868687878889898A8A8B8C8C8D8D44
:102F00008E8E8F909091919293939494959696979C
:102F1000979898999A9A9B9B9C9D9D9E9E9F9FA0F7
:102F2000A1A1A2A2A3A4A4A5A5A6A7A7A8A8A9A950
:102F3000AAABABACACADAEAE525253535454555693
:102F40005657575858595A5A5B5B5C5D5D5E5E5FD9
:102F50005F60616162626363646565666667686835
:102F600069696A6A6B6C6C6D6D6E6E6F7070717191
:102F700072727374747575767777787879797A7BED
:102F80007B7C7C7D7D7E7F7F808081828283838449
:102F90008485868687878888898A8A8B8B8C8D8DA5
:102FA0008E8E8F8F90919192929393949595969601
:102FB00097979899999A9A9B9C9C9D9D9E9E9FA05D
:102FC000A0A1A1A2A2A3A4A4A5A5A6A7A7A8A8A9B9
:102FD000A9AAABABACACADAD5253535455555656F4
:102FE00057575859595A5A5B5B5C5D5D5E5E5F5F2F
:102FF000606061626263636464656666676768688F
:10300000696A6A6B6B6C6C6D6E6E6F6F70707172EB
:10301000727373747475767677777878797A7A7B49
:103020007B7C7C7D7E7E7F7F8080818182838384A8
:10303000848585868787888889898A8B8B8C8C8D07
:103040008D8E8F8F90909191929393949495959665
:103050009797989899999A9B9B9C9C9D9D9E9F9FC2
:10306000A0A0A1A1A2A2A3A4A4A5A5A6A6A7A8A822
:10307000A9A9AAAAABACACAD535454555556565752
:10308000575859595A5A5B5B5C5C5D5E5E5F5F6086
:1030900060616262636364646565666767686869E6
:1030A000696A6A6B6C6C6D6D6E6E6F707071717247
:1030B000727373747575767677777878797A7A7BA8
:1030C0007B7C7C7D7E7E7F7F808081818283838408
:1030D000848585868787888889898A8A8B8C8C8D68
:1030E0008D8E8E8F8F9091919292939394959596C9
:1030F0009697979898999A9A9B9B9C9C9D9D9E9F2A
:103100009FA0A0A1A1A2A3A3A4A4A5A5A6A6A7A889
:10311000A8A9A9AAAAABABAC5454555556565757B3
:103120005859595A5A5B5B5C5C5D5E5E5F5F6060DC
:10313000616162636364646565666667676869693F
:103140006A6A6B6B6C6C6D6E6E6F6F7070717172A2
:10315000737374747575767677777879797A7A7B04
:103160007B7C7C7D7E7E7F7F808081818283838467
:10317000848585868687888889898A8A8B8B8C8CCA
:103180008D8E8E8F8F90909191929393949495952C
:10319000969697989899999A9A9B9B9C9C9D9E9E8F
:1031A0009F9FA0A0A1A1A2A3A3A4A4A5A5A6A6A7F2
:1031B000A8A8A9A9AAAAABAB545555565657585812
:1031C00059595A5A5B5B5C5C5D5D5E5F5F60606134
:1031D000616262636364656566666767686869699A
:1031E0006A6B6B6C6C6D6D6E6E6F6F7071717272FD
:1031F000737374747575767777787879797A7A7B62
:103200007B7C7D7D7E7E7F7F8080818182828384C6
:10321000848585868687878888898A8A8B8B8C8C2B
:103220008D8D8E8E8F909091919292939394949590
:1032300096969797989899999A9A9B9C9C9D9D9EF3
:103240009E9F9FA0A0A1A2A2A3A3A4A4A5A5A6A659
:10325000A7A7A8A9A9AAAAAB555556565758585971
:10326000595A5A5B5B5C5C5D5D5E5F5F606061618B
:103270006262636364646565666767686869696AF2
:103280006A6B6B6C6C6D6E6E6F6F70707171727259
:10329000737374757576767777787879797A7A7BBF
:1032A0007B7C7D7D7E7E7F7F808081818282838426
:1032B00084858586868787888889898A8A8B8C8C8D
:1032C0008D8D8E8E8F8F90909191929393949495F3
:1032D00095969697979898999A9A9B9B9C9C9D9D5A
:1032E0009E9E9F9FA0A0A1A2A2A3A3A4A4A5A5A6C1
:1032F000A6A7A7A8A9A9AAAA5556575758585959D1
:103300005A5A5B5B5C5C5D5D5E5E5F6060616162E2
:1033100062636364646565666667676869696A6A4B
:103320006B6B6C6C6D6D6E6E6F6F707071717273B4
:10333000737474757576767777787879797A7A7B1D
:103340007C7C7D7D7E7E7F7F808081818282838385
:1033500084858586868787888889898A8A8B8B8CED
:103360008C8D8E8E8F8F9090919192929393949456
:103370009595969697989899999A9A9B9B9C9C9DBF
:103380009D9E9E9F9FA0A1A1A2A2A3A3A4A4A5A528
:10339000A6A6A7A7A8A8A9AA565757585859595A30
:1033A0005A5B5B5C5C5D5D5E5E5F5F60606162623C
:1033B00063636464656566666767686869696A6AA5
:1033C0006B6B6C6C6D6E6E6F6F707071717272730F
:1033D0007374747575767677777878797A7A7B7B7B
:1033E0007C7C7D7D7E7E7F7F8080818182828383E5
:1033F00084848585868787888889898A8A8B8B8C4F
:103400008C8D8D8E8E8F8F909091919293939494BA
:10341000959596969797989899999A9A9B9B9C9C24
:103420009D9D9E9F9FA0A0A1A1A2A2A3A3A4A4A58D
:10343000A5A6A6A7A7A8A8A95757585859595A5A90
:103440005B5B5C5C5D5D5E5E5F5F60606161626294
:10345000636364656566666767686869696A6A6BFD
:103460006B6C6C6D6D6E6E6F6F707071717272736C
:103470007374747575767777787879797A7A7B7BD7
:103480007C7C7D7D7E7E7F7F808081818282838344
:1034900084848585868687878888898A8A8B8B8CB1
:1034A0008C8D8D8E8E8F8F9090919192929393941C
:1034B00094959596969797989899999A9A9B9C9C8B
:1034C0009D9D9E9E9F9FA0A0A1A1A2A2A3A3A4A4F4
:1034D000A5A5A6A6A7A7A8A857585859595A5A5BF0
:1034E0005B5C5C5D5D5E5E5F5F60606161626263EC
:1034F000636464656566666767686869696A6A6B5C
:103500006B6C6C6D6E6E6F6F7070717172727373C5
:103510007474757576767777787879797A7A7B7B33
:103520007C7C7D7D7E7E7F7F8080818182828383A3
:103530008484858586868787888889898A8A8B8B13
:103540008C8C8D8D8E8E8F8F909091919293939481
:1035500094959596969797989899999A9A9B9B9CEB
:103560009C9D9D9E9E9F9FA0A0A1A1A2A2A3A3A45B
:10357000A4A5A5A6A6A7A7A8585859595A5A5B5B4F
:103580005C5C5D5D5E5E5F5F606061616262636343
:103590006464656566666767686869696A6A6B6BB3
:1035A0006C6C6D6D6E6E6F6F707071717272737323
:1035B0007474757576767777787879797A7A7B7B93
:1035C0007C7C7D7D7E7E7F7F808081818282838303
:1035D0008484858586868787888889898A8A8B8B73
:1035E0008C8C8D8D8E8E8F8F9090919192929393E3
:1035F0009494959596969797989899999A9A9B9B53
:103600009C9C9D9D9E9E9F9FA0A0A1A1A2A2A3A3C2
:10361000A4A4A5A5A6A6A7A75859595A5A5B5B5CAE
:103620005C5D5D5E5E5F5F6060616162626363649A
:1036300064656566666767686869696A6A6B6B6C0A
:103640006C6C6D6D6E6E6F6F707071717272737382
:103650007474757576767777787879797A7A7B7BF2
:103660007C7C7D7D7E7E7F7F808081818282838362
:103670008484858586868787888889898A8A8B8BD2
:103680008C8C8D8D8E8E8F8F909091919292939342
:10369000939494959596969797989899999A9A9BBA
:1036A0009B9C9C9D9D9E9E9F9FA0A0A1A1A2A2A32A
:1036B000A3A4A4A5A5A6A6A759595A5A5B5B5C5C0E
:1036C0005D5D5E5E5F5F60606161626263636364F3
:1036D00064656566666767686869696A6A6B6B6C6A
:1036E0006C6D6D6E6E6F6F707071717272737374DA
:1036F0007475757676767777787879797A7A7B7B50
:103700007C7C7D7D7E7E7F7F8080818182828383C1
:10371000848485858686878788888989898A8A8B33
:103720008B8C8C8D8D8E8E8F8F90909191929293A9
:10373000939494959596969797989899999A9A9B19
:103740009B9C9C9C9D9D9E9E9F9FA0A0A1A1A2A290
:10375000A3A3A4A4A5A5A6A6595A5A5B5B5C5C5D6D
:103760005D5E5E5F5F60606061616262636364644E
:10377000656566666767686869696A6A6B6B6C6CC1
:103780006D6D6D6E6E6F6F70707171727273737438
:103790007475757676777778787979797A7A7B7BAC
:1037A0007C7C7D7D7E7E7F7F808081818282838321
:1037B000848485858686868787888889898A8A8B96
:1037C0008B8C8C8D8D8E8E8F8F909091919292920A
:1037D00093939494959596969797989899999A9A81
:1037E0009B9B9C9C9D9D9E9E9F9F9FA0A0A1A1A2F4
:1037F000A2A3A3A4A4A5A5A65A5A5B5B5C5C5D5DCD
:103800005E5E5F5F5F6060616162626363646465A6
:10381000656666676768686869696A6A6B6B6C6C1D
:103820006D6D6E6E6F6F7070717171727273737493
:1038300074757576767777787879797A7A7B7B7B09
:103840007C7C7D7D7E7E7F7F808081818282838380
:10385000848484858586868787888889898A8A8BF7
:103860008B8C8C8D8D8E8E8E8F8F9090919192926D
:103870009393949495959696979797989899999AE3
:103880009A9B9B9C9C9D9D9E9E9F9FA0A0A0A1A15A
:10389000A2A2A3A3A4A4A5A55A5B5B5C5C5D5D5E2C
:1038A0005E5E5F5F60606161626263636464656500
:1038B0006566666767686869696A6A6B6B6C6C6D78
:1038C0006D6D6E6E6F6F70707171727273737474F0
:1038D00074757576767777787879797A7A7B7B7C68
:1038E0007C7C7D7D7E7E7F7F8080818182828383E0
:1038F000838484858586868787888889898A8A8B58
:103900008B8B8C8C8D8D8E8E8F8F909091919292CF
:103910009293939494959596969797989899999A47
:103920009A9A9B9B9C9C9D9D9E9E9F9FA0A0A1A1BF
:10393000A1A2A2A3A3A4A4A55B5B5C5C5D5D5D5E8C
:103940005E5F5F606061616262636363646465655A
:1039500066666767686869696A6A6A6B6B6C6C6DD2
:103960006D6E6E6F6F70707071717272737374744C
:1039700075757676767777787879797A7A7B7B7CC5
:103980007C7C7D7D7E7E7F7F80808181828283833F
:1039900083848485858686878788888989898A8AB9
:1039A0008B8B8C8C8D8D8E8E8F8F8F909091919232
:1039B00092939394949595959696979798989999AC
:1039C0009A9A9B9B9C9C9C9D9D9E9E9F9FA0A0A124
:1039D000A1A2A2A2A3A3A4A45B5C5C5D5D5D5E5EEC
:1039E0005F5F6060616162626263636464656566B3
:1039F00066676768686869696A6A6B6B6C6C6D6D2D
:103A00006D6E6E6F6F7070717172727273737474A9
:103A100075757676777778787879797A7A7B7B7C22
:103A20007C7D7D7D7E7E7F7F80808181828282839E
:103A300083848485858686878787888889898A8A1A
:103A40008B8B8C8C8D8D8D8E8E8F8F909091919293
:103A50009292939394949595969697979798989910
:103A6000999A9A9B9B9C9C9D9D9D9E9E9F9FA0A08A
:103A7000A1A1A2A2A2A3A3A45C5C5D5D5D5E5E5F4A
:103A80005F6060616161626263636464656566660C
:103A9000666767686869696A6A6B6B6B6C6C6D6D89
:103AA0006E6E6F6F6F707071717272737374747405
:103AB00075757676777778787979797A7A7B7B7C81
:103AC0007C7D7D7D7E7E7F7F8080818182828283FE
:103AD00083848485858686868787888889898A8A7B
:103AE0008B8B8B8C8C8D8D8E8E8F8F9090909191F7
:103AF0009292939394949495959696979798989973
:103B000099999A9A9B9B9C9C9D9D9E9E9E9F9FA0EF
:103B1000A0A1A1A2A2A2A3A35C5C5D5D5E5E5F5FAB
:103B20006060606161626263636464656565666666
:103B3000676768686969696A6A6B6B6C6C6D6D6DE3
:103B40006E6E6F6F70707171717272737374747561
:103B500075757676777778787979797A7A7B7B7CE0
:103B60007C7D7D7D7E7E7F7F80808181828282835D
:103B700083848485858686868787888889898A8ADA
:103B80008A8B8B8C8C8D8D8E8E8E8F8F9090919159
:103B900092929293939494959596969697979898D7
:103BA00099999A9A9A9B9B9C9C9D9D9E9E9F9F9F54
:103BB000A0A0A1A1A2A2A3A35C5D5D5E5E5F5F6009
:103BC00060606161626263636464646565666667C0
:103BD0006767686869696A6A6B6B6B6C6C6D6D6E40
:103BE0006E6F6F6F707071717272727373747475BF
:103BF000757676767777787879797A7A7A7B7B7C3E
:103C00007C7D7D7E7E7E7F7F8080818181828283BC
:103C10008384848585858686878788888989898A3B
:103C20008A8B8B8C8C8D8D8D8E8E8F8F90909091BA
:103C30009192929393949494959596969797989839
:103C40009899999A9A9B9B9B9C9C9D9D9E9E9F9FB9
:103C50009FA0A0A1A1A2A2A35D5D5E5E5F5F5F6069
:103C6000606161626263636364646565666666671A
:103C70006768686969696A6A6B6B6C6C6D6D6D6E9B
:103C80006E6F6F707070717172727373747474751B
:103C9000757676777777787879797A7A7A7B7B7C9C
:103CA0007C7D7D7E7E7E7F7F80808181818282831C
:103CB0008384848585858686878788888889898A9C
:103CC0008A8B8B8B8C8C8D8D8E8E8F8F8F9090911D
:103CD000919292929393949495959696969797989D
:103CE000989999999A9A9B9B9C9C9C9D9D9E9E9F1E
:103CF0009FA0A0A0A1A1A2A25D5E5E5F5F5F6060C9
:103D00006161626262636364646565656666676774
:103D100068686869696A6A6B6B6B6C6C6D6D6E6EF6
:103D20006E6F6F7070717172727273737474757577
:103D3000757676777778787879797A7A7B7B7B7CF9
:103D40007C7D7D7E7E7E7F7F80808181818282837B
:103D50008384848485858686878787888889898AFD
:103D60008A8A8B8B8C8C8D8D8D8E8E8F8F9090917F
:103D70009191929293939494949595969697979700
:103D8000989899999A9A9A9B9B9C9C9D9D9D9E9E82
:103D90009F9FA0A0A0A1A1A25E5E5F5F5F60606127
:103DA00061616262636364646465656666676767D0
:103DB000686869696A6A6A6B6B6C6C6D6D6D6E6E52
:103DC0006F6F7070707171727273737374747575D4
:103DD000757676777778787879797A7A7B7B7B7C59
:103DE0007C7D7D7E7E7E7F7F8080818181828283DB
:103DF0008384848485858686878787888889898A5D
:103E00008A8A8B8B8C8C8C8D8D8E8E8F8F8F9090E1
:103E10009191929292939394949595959696979763
:103E200098989899999A9A9B9B9B9C9C9D9D9E9EE5
:103E30009E9F9FA0A0A0A1A15E5E5F5F6060616188
:103E40006162626363646464656566666667676829
:103E5000686969696A6A6B6B6C6C6C6D6D6E6E6EAD
:103E60006F6F707071717172727373747474757531
:103E7000767676777778787979797A7A7B7B7C7CB5
:103E80007C7D7D7E7E7E7F7F80808181818282833A
:103E900083838484858586868687878888898989BF
:103EA0008A8A8B8B8B8C8C8D8D8E8E8E8F8F909043
:103EB00091919192929393939494959596969697C7
:103EC0009798989999999A9A9B9B9B9C9C9D9D9E4B
:103ED0009E9E9F9FA0A0A1A15E5F5F6060606161E8
:103EE0006262636363646465656566666767686884
:103EF0006869696A6A6A6B6B6C6C6D6D6D6E6E6F0A
:103F00006F6F70707171727272737374747475758F
:103F1000767677777778787979797A7A7B7B7C7C13
:103F20007C7D7D7E7E7E7F7F808081818182828399
:103F3000838384848585868686878788888889891F
:103F40008A8A8B8B8B8C8C8D8D8D8E8E8F8F9090A3
:103F50009091919292929393949495959596969729
:103F60009797989899999A9A9A9B9B9C9C9C9D9DAF
:103F70009E9E9F9F9FA0A0A15F5F60606061616245
:103F800062626363646465656566666767676868DF
:103F90006969696A6A6B6B6C6C6C6D6D6E6E6E6F65
:103FA0006F707070717172727373737474757575EC
:103FB0007676777777787879797A7A7A7B7B7C7C72
:103FC0007C7D7D7E7E7E7F7F8080818181828283F9
:103FD0008383848485858586868787888888898980
:103FE0008A8A8A8B8B8C8C8C8D8D8E8E8F8F8F9006
:103FF000909191919292939393949495959696968D
:10400000979798989899999A9A9A9B9B9C9C9D9D12
:104010009D9E9E9F9F9FA0A05F60606061616262A5
:104020006263636464646565666666676768686939
:1040300069696A6A6B6B6B6C6C6D6D6D6E6E6F6FC0
:104040006F70707171717272737373747475757649
:104050007676777778787879797A7A7A7B7B7C7CD0
:104060007C7D7D7E7E7E7F7F808081818182828358
:1040700083838484858585868687878788888989E0
:10408000898A8A8B8B8C8C8C8D8D8E8E8E8F8F9067
:1040900090909191929292939394949495959696F0
:1040A00096979798989999999A9A9B9B9B9C9C9D77
:1040B0009D9D9E9E9F9F9FA05F6060616162626206
:1040C0006363646464656566666667676868686993
:1040D000696A6A6A6B6B6C6C6C6D6D6E6E6E6F6F1D
:1040E00070707071717272727373747474757576A6
:1040F0007676777778787879797A7A7A7B7B7C7C30
:104100007C7D7D7E7E7E7F7F8080818181828283B7
:10411000838384848585858686878787888889893F
:10412000898A8A8B8B8B8C8C8D8D8D8E8E8F8F8FC9
:104130009090919191929293939394949595959652
:104140009697979798989999999A9A9B9B9B9C9CDC
:104150009D9D9D9E9E9F9FA0606061616162626364
:1041600063636464656565666667676768686969EF
:10417000696A6A6B6B6B6C6C6D6D6D6E6E6F6F6F79
:104180007070717171727273737374747575757602
:104190007677777778787979797A7A7B7B7B7C7C8C
:1041A0007D7D7D7E7E7F7F7F808080818182828217
:1041B00083838484848585868686878788888889A2
:1041C000898A8A8A8B8B8C8C8C8D8D8E8E8E8F8F2C
:1041D00090909091919292929393949494959596B5
:1041E0009696979798989899999A9A9A9B9B9C9C3F
:1041F0009C9D9D9E9E9E9F9F6061616162626363C4
:10420000636464656565666666676768686869694A
:104210006A6A6A6B6B6C6C6C6D6D6E6E6E6F6F70D4
:104220007070717172727273737374747575757660
:104230007677777778787979797A7A7B7B7B7C7CEB
:104240007D7D7D7E7E7F7F7F808080818182828276
:104250008383848484858586868687878888888901
:10426000898A8A8A8B8B8C8C8C8D8D8D8E8E8F8F8C
:104270008F90909191919292939393949495959518
:10428000969697979798989999999A9A9A9B9B9CA2
:104290009C9C9D9D9E9E9E9F606161626262636325
:1042A00064646465656666666767686868696969A5
:1042B0006A6A6B6B6B6C6C6D6D6D6E6E6F6F6F7031
:1042C00070707171727272737374747475757676BE
:1042D0007677777878787979797A7A7B7B7B7C7C4A
:1042E0007D7D7D7E7E7F7F7F8080808181828282D6
:1042F0008383848484858586868687878788888962
:1043000089898A8A8B8B8B8C8C8D8D8D8E8E8F8FED
:104310008F9090909191929292939394949495957A
:1043200096969697979798989999999A9A9B9B9B06
:104330009C9C9D9D9D9E9E9F616162626263636481
:104340006464656565666667676768686969696A00
:104350006A6A6B6B6C6C6C6D6D6E6E6E6F6F6F708E
:10436000707171717272737373747475757576761A
:1043700076777778787879797A7A7A7B7B7B7C7CA8
:104380007D7D7D7E7E7F7F7F808080818182828235
:1043900083838484848585858686878787888889C2
:1043A00089898A8A8A8B8B8C8C8C8D8D8E8E8E8F50
:1043B0008F909090919191929293939394949595DC
:1043C00095969696979798989899999A9A9A9B9B6A
:1043D0009B9C9C9D9D9D9E9E6162626263636364E3
:1043E00064656565666666676768686869696A6A5C
:1043F0006A6B6B6B6C6C6D6D6D6E6E6F6F6F7070EA
:104400007071717272727373737474757575767678
:1044100077777778787879797A7A7A7B7B7B7C7C06
:104420007D7D7D7E7E7F7F7F808080818182828294
:104430008383848484858585868687878788888822
:1044400089898A8A8A8B8B8C8C8C8D8D8D8E8E8FB0
:104450008F8F90909091919292929393949494953F
:104460009595969697979798989999999A9A9A9BCD
:104470009B9C9C9C9D9D9D9E616262636363646442
:1044800064656566666667676768686969696A6AB8
:104490006B6B6B6C6C6C6D6D6E6E6E6F6F6F707046
:1044A00071717172727273737474747575757676D6
:1044B00077777778787979797A7A7A7B7B7C7C7C64
:1044C0007D7D7D7E7E7F7F7F8080808181828282F4
:1044D0008383838484858585868686878788888884
:1044E00089898A8A8A8B8B8B8C8C8D8D8D8E8E8E12
:1044F0008F8F9090909191919292939393949494A2
:10450000959596969697979898989999999A9A9B2F
:104510009B9B9C9C9C9D9D9E6262626363646464A1
:10452000656565666667676768686869696A6A6A13
:104530006B6B6B6C6C6D6D6D6E6E6E6F6F707070A3
:104540007171717272737373747474757576767633
:1045500077777778787979797A7A7A7B7B7C7C7CC3
:104560007D7D7D7E7E7F7F7F808080818182828253
:1045700083838384848585858686868787888888E3
:104580008989898A8A8B8B8B8C8C8C8D8D8E8E8E73
:104590008F8F8F9090919191929292939394949403
:1045A000959595969697979798989899999A9A9A93
:1045B0009B9B9B9C9C9D9D9D626263636464646500
:1045C000656566666667676868686969696A6A6B6F
:1045D0006B6B6C6C6C6D6D6E6E6E6F6F6F70707000
:1045E0007171727272737373747475757576767691
:1045F00077777878787979797A7A7A7B7B7C7C7C22
:104600007D7D7D7E7E7F7F7F8080808181828282B2
:104610008383838484858585868686878787888843
:104620008989898A8A8A8B8B8C8C8C8D8D8D8E8ED4
:104630008F8F8F9090909191919292939393949465
:1046400094959596969697979798989999999A9AF6
:104650009A9B9B9B9C9C9D9D626363636464656560
:104660006566666667676768686969696A6A6A6BCA
:104670006B6C6C6C6D6D6D6E6E6E6F6F707070715B
:1046800071717272727373747474757575767677EE
:1046900077777878787979797A7A7B7B7B7C7C7C80
:1046A0007D7D7D7E7E7F7F7F808080818182828212
:1046B00083838384848485858686868787878888A4
:1046C0008889898A8A8A8B8B8B8C8C8D8D8D8E8E36
:1046D0008E8F8F8F909091919192929293939394C9
:1046E0009495959596969697979898989999999A5A
:1046F0009A9A9B9B9C9C9C9D6363636464646565C0
:1047000066666667676768686869696A6A6A6B6B24
:104710006B6C6C6C6D6D6E6E6E6F6F6F70707071B8
:10472000717272727373737474747575767676774A
:10473000777778787879797A7A7A7B7B7B7C7C7CDE
:104740007D7D7E7E7E7F7F7F808080818181828271
:104750008383838484848585858686878787888804
:10476000888989898A8A8B8B8B8C8C8C8D8D8D8E98
:104770008E8F8F8F9090909191919292939393942A
:1047800094949595959696979797989898999999BE
:104790009A9A9B9B9B9C9C9C63636464646565651F
:1047A00066666667676868686969696A6A6A6B6B82
:1047B0006C6C6C6D6D6D6E6E6E6F6F6F7070717115
:1047C00071727272737373747475757576767677A9
:1047D000777778787879797A7A7A7B7B7B7C7C7C3E
:1047E0007D7D7E7E7E7F7F7F8080808181818282D1
:1047F0008383838484848585858686878787888864
:10480000888989898A8A8A8B8B8C8C8C8D8D8D8EF8
:104810008E8E8F8F9090909191919292929393938C
:10482000949495959596969697979798989999991F
:104830009A9A9A9B9B9B9C9C63646464656565667D
:10484000666667676768686969696A6A6A6B6B6BDD
:104850006C6C6C6D6D6E6E6E6F6F6F707070717171
:104860007172727273737474747575757676767707
:10487000777778787979797A7A7A7B7B7B7C7C7C9C
:104880007D7D7E7E7E7F7F7F808080818181828230
:1048900083838384848485858586868687878888C4
:1048A000888989898A8A8A8B8B8B8C8C8D8D8D8E59
:1048B0008E8E8F8F8F9090909191919292939393EF
:1048C0009494949595959696969797989898999983
:1048D000999A9A9A9B9B9B9C6364646465656666DF
:1048E000666767676868686969696A6A6A6B6B6C3A
:1048F0006C6C6D6D6D6E6E6E6F6F6F7070707171D0
:104900007272727373737474747575757676767764
:10491000777878787979797A7A7A7B7B7B7C7C7CFA
:104920007D7D7E7E7E7F7F7F80808081818182828F
:104930008383838484848585858686868787878824
:10494000888989898A8A8A8B8B8B8C8C8C8D8D8DBA
:104950008E8E8F8F8F90909091919192929293934F
:1049600093949495959596969697979798989899E5
:1049700099999A9A9B9B9B9C64646465656566663D
:104980006767676868686969696A6A6A6B6B6B6C94
:104990006C6C6D6D6D6E6E6F6F6F7070707171712C
:1049A00072727273737374747475757676767777C2
:1049B000777878787979797A7A7A7B7B7B7C7C7D59
:1049C0007D7D7E7E7E7F7F7F8080808181818282EF
:1049D0008283838484848585858686868787878885
:1049E00088888989898A8A8B8B8B8C8C8C8D8D8D1C
:1049F0008E8E8E8F8F8F90909091919292929393B2
:104A00009394949495959596969697979798989948
:104A100099999A9A9A9B9B9B64646565656666669C
:104A200067676768686869696A6A6A6B6B6B6C6CF0
:104A30006C6D6D6D6E6E6E6F6F6F70707071717189
:104A4000727273737374747475757576767677771E
:104A5000777878787979797A7A7A7B7B7C7C7C7DB7
:104A60007D7D7E7E7E7F7F7F80808081818182824E
:104A700082838383848485858586868687878788E5
:104A800088888989898A8A8A8B8B8B8C8C8C8D8D7E
:104A90008E8E8E8F8F8F9090909191919292929313
:104AA00093939494949595959696979797989898AC
:104AB0009999999A9A9A9B9B6465656566666667FB
:104AC00067676868686969696A6A6A6B6B6B6C6C4E
:104AD0006C6D6D6D6E6E6F6F6F70707071717172E5
:104AE000727273737374747475757576767677777E
:104AF000777878787979797A7A7B7B7B7C7C7C7D16
:104B00007D7D7E7E7E7F7F7F8080808181818282AD
:104B10008283838384848485858686868787878845
:104B200088888989898A8A8A8B8B8B8C8C8C8D8DDD
:104B30008D8E8E8E8F8F8F90909091919292929376
:104B4000939394949495959596969697979798980D
:104B5000989999999A9A9A9B64656565666667675C
:104B6000676868686969696A6A6A6B6B6B6C6C6CA8
:104B70006D6D6D6E6E6E6F6F6F7070707171717242
:104B800072727373737474747575757676767777DD
:104B90007878787979797A7A7A7B7B7B7C7C7C7D72
:104BA0007D7D7E7E7E7F7F7F80808081818182820D
:104BB00082838383848484858585868686878787A8
:104BC00088888989898A8A8A8B8B8B8C8C8C8D8D3D
:104BD0008D8E8E8E8F8F8F909090919191929292D8
:104BE0009393939494949595959696969797979872
:104BF000989899999A9A9A9B6565656666666767BB
:104C0000676868686969696A6A6A6B6B6B6C6C6C07
:104C10006D6D6D6E6E6E6F6F6F707071717172729F
:104C20007273737374747475757576767677777737
:104C30007878787979797A7A7A7B7B7B7C7C7C7DD1
:104C40007D7D7E7E7E7F7F7F80808081818182826C
:104C50008283838384848485858586868687878707
:104C60008888888989898A8A8A8B8B8B8C8C8C8DA1
:104C70008D8D8E8E8E8F8F90909091919192929239
:104C800093939394949495959596969697979798D1
:104C900098989999999A9A9A65656666666767671A
:104CA0006868686969696A6A6A6B6B6B6C6C6C6D61
:104CB0006D6D6E6E6E6F6F6F7070707171717272FC
:104CC0007273737374747475757576767677777797
:104CD0007878787979797A7A7A7B7B7B7C7C7C7D31
:104CE0007D7D7E7E7E7F7F7F8080808181818282CC
:104CF0008283838384848485858586868687878767
:104D00008888888989898A8A8A8B8B8B8C8C8C8D00
:104D10008D8D8E8E8E8F8F8F90909091919192929B
:104D20009293939394949495959596969697979736
:104D30009898989999999A9A656666666767676878
:104D40006868686969696A6A6A6B6B6B6C6C6C6DC0
:104D50006D6D6E6E6E6F6F6F70707071717172725B
:104D600072737373747474757575767676777777F6
:104D70007878787979797A7A7A7B7B7B7C7C7C7D90
:104D80007D7D7E7E7E7F7F7F80808081818182822B
:104D900082838383848484858585868686878787C6
:104DA0008888888989898A8A8A8B8B8B8C8C8C8D60
:104DB0008D8D8E8E8E8F8F8F9090909191919292FB
:104DC0009293939394949495959596969697979796
:104DD000979898989999999A6566666667676768DB
:104DE00068686969696A6A6A6B6B6B6C6C6C6D6D1B
:104DF0006D6E6E6E6F6F6F707070717171727272B6
:104E00007373737474747575757576767677777752
:104E10007878787979797A7A7A7B7B7B7C7C7C7DEF
:104E20007D7D7E7E7E7F7F7F80808081818182828A
:104E30008283838384848485858586868687878725
:104E40008888888989898A8A8A8A8B8B8B8C8C8CC2
:104E50008D8D8D8E8E8E8F8F8F909090919191925F
:104E600092929393939494949595959696969797FA
:104E7000979898989999999A666666676767686837
:104E8000686969696A6A6A6B6B6B6C6C6C6C6D6D76
:104E90006D6E6E6E6F6F6F70707071717172727215
:104EA00073737374747475757576767677777778AF
:104EB0007878797979797A7A7A7B7B7B7C7C7C7D4E
:104EC0007D7D7E7E7E7F7F7F8080808181818282EA
:104ED0008283838384848485858586868686878786
:104EE000878888888989898A8A8A8B8B8B8C8C8C25
:104EF0008D8D8D8E8E8E8F8F8F90909091919192BF
:104F0000929293939393949494959595969696975D
:104F100097979898989999990000000000000000D0
:104F20000000000000000000000000000000000081
:104F30000000000000000000000000000000000071
:104F40000000000000000000000000000000000061
:104F50000000000000000000000000000000000051
:105230000000000000000000FFFFFFFFFFFFFFFF76
:10524000FFFFFFFFFFFFFFFFFFFFFFFFFFFFFFFF6E
:10525000FFFFFFFFFFFFFFFFFFFFFFFFFFFFFFFF5E
:10526000FFFFFFFFFFFFFFFFFFFFFFFFFFFFFFFF4E
:10527000FFFFFFFFFFFFFFFFFFFFFFFFFFFFFFFF3E
:105B9000FFFFFFFFFFFFFFFFF9F9F9F9F9F9F9F945
:105BA000F9F9F9F9F9F9F9F9F9F9F9F9F9F9F9F965
:105BB000F9F9F9F9F9F9F9F9F9F9F9F9F9F9F9F955
:105BC000F9F9F9F9F9F9F9F9F9F9F9F9F9F9F9F945
:105BD000F9F9F9F9F9F9F9F9F9F9F9F9F9F9F9F935
:105BE000F9F9F9F9F9F9F9F9F9F9F9F9F9F9F9F925
:105BF000F9F9F9F9F9F9F9F9F9F9F9F9F9F9F9F915
:105C0000F9F9F9F9F9F9F9F9F9F9F9F9F9F9F9F904
:105C1000F9F9F9F9F9F9F9F9F9F9F9F9F9F9F9F9F4
:105C2000F9F9F9F9F9F9F9F9F9F9F9F9F9F9F9F9E4
:105C3000F9F9F9F9F9F9F9F9E7E7E7E7E7E7E7E764
:105C4000E7E7E7E7E7E7E7E7E7E7E7E7E7E7E7E7E4
:105C5000E7E7E7E7E7E7E7E7E7E7E7E7E7E7E7E7D4
:105C6000E7E7E7E7E7E7E7E7E7E7E7E7E7E7E7E7C4
:105C7000E7E7E7E7E7E7E7E7E7E7E7E7E7E7E7E7B4
:105C8000E7E7E7E7E7E7E7E7E7E7E7E7E7E7E7E7A4
:105C9000E7E7E7E7E7E7E7E7E7E7E7E7E7E7E7E794
:105CA000E7E7E7E7E7E7E7E7E7E7E7E7E7E7E7E784
:105CB000E7E7E7E7E7E7E7E7E7E7E7E7E7E7E7E774
:105CC000E7E7E7E7E7E7E7E7E7E7E7E7E7E7E7E764
:105CD000E7E7E7E7E7E7E7E7D7D7D7D7D7D7D7D7D4
:105CE000D7D7D7D7D7D7D7D7D7D7D7D7D7D7D7D744
:105CF000D7D7D7D7D7D7D7D7D7D7D7D7D7D7D7D734
:105D0000D7D7D7D7D7D7D7D7D7D7D7D7D7D7D7D723
:105D1000D7D7D7D7D7D7D7D7D7D7D7D7D7D7D7D713
:105D2000D7D7D7D7D7D7D7D7D7D7D7D7D7D7D7D703
:105D3000D7D7D7D7D7D7D7D7D7D7D7D7D7D7D7D7F3
:105D4000D7D7D7D7D7D7D7D7D7D7D7D7D7D7D7D7E3
:105D5000D7D7D7D7D7D7D7D7D7D7D7D7D7D7D7D7D3
:105D6000D7D7D7D7D7D7D7D7D7D7D7D7D7D7D7D7C3
:105D7000D7D7D7D7D7D7D7D7CACACACACACACACA1B
:105D8000CACACACACACACACACACACACACACACACA73
:105D9000CACACACACACACACACACACACACACACACA63
:105DA000CACACACACACACACACACACACACACACACA53
:105DB000CACACACACACACACACACACACACACACACA43
:105DC000CACACACACACACACACACACACACACACACA33
:105DD000CACACACACACACACACACACACACACACACA23
:105DE000CACACACACACACACACACACACACACACACA13
:105DF000CACACACACACACACACACACACACACACACA03
:105E0000CACACACACACACACACACACACACACACACAF2
:105E1000CACACACACACACACABDBDBDBDBDBDBDBD4A
:105E2000BDBDBDBDBDBDBDBDBDBDBDBDBDBDBDBDA2
:105E3000BDBDBDBDBDBDBDBDBDBDBDBDBDBDBDBD92
:105E4000BDBDBDBDBDBDBDBDBDBDBDBDBDBDBDBD82
:105E5000BDBDBDBDBDBDBDBDBDBDBDBDBDBDBDBD72
:105E6000BDBDBDBDBDBDBDBDBDBDBDBDBDBDBDBD62
:105E7000BDBDBDBDBDBDBDBDBDBDBDBDBDBDBDBD52
:105E8000BDBDBDBDBDBDBDBDBDBDBDBDBDBDBDBD42
:105E9000BDBDBDBDBDBDBDBDBDBDBDBDBDBDBDBD32
:105EA000BDBDBDBDBDBDBDBDBDBDBDBDBDBDBDBD22
:105EB000BDBDBDBDBDBDBDBDB2B2B2B2B2B2B2B26A
:105EC000B2B2B2B2B2B2B2B2B2B2B2B2B2B2B2B2B2
:105ED000B2B2B2B2B2B2B2B2B2B2B2B2B2B2B2B2A2
:105EE000B2B2B2B2B2B2B2B2B2B2B2B2B2B2B2B292
:105EF000B2B2B2B2B2B2B2B2B2B2B2B2B2B2B2B282
:105F0000B2B2B2B2B2B2B2B2B2B2B2B2B2B2B2B271
:105F1000B2B2B2B2B2B2B2B2B2B2B2B2B2B2B2B261
:105F2000B2B2B2B2B2B2B2B2B2B2B2B2B2B2B2B251
:105F3000B2B2B2B2B2B2B2B2B2B2B2B2B2B2B2B241
:105F4000B2B2B2B2B2B2B2B2B2B2B2B2B2B2B2B231
:105F5000B2B2B2B2B2B2B2B2A8A8A8A8A8A8A8A871
:105F6000A8A8A8A8A8A8A8A8A8A8A8A8A8A8A8A8B1
:105F7000A8A8A8A8A8A8A8A8A8A8A8A8A8A8A8A8A1
:105F8000A8A8A8A8A8A8A8A8A8A8A8A8A8A8A8A891
:105F9000A8A8A8A8A8A8A8A8A8A8A8A8A8A8A8A881
:105FA000A8A8A8A8A8A8A8A8A8A8A8A8A8A8A8A871
:105FB000A8A8A8A8A8A8A8A8A8A8A8A8A8A8A8A861
:105FC000A8A8A8A8A8A8A8A8A8A8A8A8A8A8A8A851
:105FD000A8A8A8A8A8A8A8A8A8A8A8A8A8A8A8A841
:105FE000A8A8A8A8A8A8A8A8A8A8A8A8A8A8A8A831
:105FF000A8A8A8A8A8A8A8A89E9E9E9E9E9E9E9E71
:106000009E9E9E9E9E9E9E9E9E9E9E9E9E9E9E9EB0
:106010009E9E9E9E9E9E9E9E9E9E9E9E9E9E9E9EA0
:106020009E9E9E9E9E9E9E9E9E9E9E9E9E9E9E9E90
:106030009E9E9E9E9E9E9E9E9E9E9E9E9E9E9E9E80
:106040009E9E9E9E9E9E9E9E9E9E9E9E9E9E9E9E70
:106050009E9E9E9E9E9E9E9E9E9E9E9E9E9E9E9E60
:106060009E9E9E9E9E9E9E9E9E9E9E9E9E9E9E9E50
:106070009E9E9E9E9E9E9E9E9E9E9E9E9E9E9E9E40
:106080009E9E9E9E9E9E9E9E9E9E9E9E9E9E9E9E30
:106090009E9E9E9E9E9E9E9E969696969696969660
:1060A0009696969696969696969696969696969690
:1060B0009696969696969696969696969696969680
:1060C0009696969696969696969696969696969670
:1060D0009696969696969696969696969696969660
:1060E0009696969696969696969696969696969650
:1060F0009696969696969696969696969696969640
:10610000969696969696969696969696969696962F
:10611000969696969696969696969696969696961F
:10612000969696969696969696969696969696960F
:1061300096969696969696968E8E8E8E8E8E8E8E3F
:106140008E8E8E8E8E8E8E8E8E8E8E8E8E8E8E8E6F
:106150008E8E8E8E8E8E8E8E8E8E8E8E8E8E8E8E5F
:106160008E8E8E8E8E8E8E8E8E8E8E8E8E8E8E8E4F
:106170008E8E8E8E8E8E8E8E8E8E8E8E8E8E8E8E3F
:106180008E8E8E8E8E8E8E8E8E8E8E8E8E8E8E8E2F
:106190008E8E8E8E8E8E8E8E8E8E8E8E8E8E8E8E1F
:1061A0008E8E8E8E8E8E8E8E8E8E8E8E8E8E8E8E0F
:1061B0008E8E8E8E8E8E8E8E8E8E8E8E8E8E8E8EFF
:1061C0008E8E8E8E8E8E8E8E8E8E8E8E8E8E8E8EEF
:1061D0008E8E8E8E8E8E8E8E878787878787878717
:1061E000878787878787878787878787878787873F
:1061F000878787878787878787878787878787872F
:10620000878787878787878787878787878787871E
:10621000878787878787878787878787878787870E
:1062200087878787878787878787878787878787FE
:1062300087878787878787878787878787878787EE
:1062400087878787878787878787878787878787DE
:1062500087878787878787878787878787878787CE
:1062600087878787878787878787878787878787BE
:1062700087878787878787878080808080808080E6
:10628000808080808080808080808080808080800E
:1062900080808080808080808080808080808080FE
:1062A00080808080808080808080808080808080EE
:1062B00080808080808080808080808080808080DE
:1062C00080808080808080808080808080808080CE
:1062D00080808080808080808080808080808080BE
:1062E00080808080808080808080808080808080AE
:1062F000808080808080808080808080808080809E
:10630000808080808080808080808080808080808D
:1063100080808080808080807A7A7A7A7A7A7A7AAD
:106320007A7A7A7A7A7A7A7A7A7A7A7A7A7A7A7ACD
:106330007A7A7A7A7A7A7A7A7A7A7A7A7A7A7A7ABD
:106340007A7A7A7A7A7A7A7A7A7A7A7A7A7A7A7AAD
:106350007A7A7A7A7A7A7A7A7A7A7A7A7A7A7A7A9D
:106360007A7A7A7A7A7A7A7A7A7A7A7A7A7A7A7A8D
:106370007A7A7A7A7A7A7A7A7A7A7A7A7A7A7A7A7D
:106380007A7A7A7A7A7A7A7A7A7A7A7A7A7A7A7A6D
:106390007A7A7A7A7A7A7A7A7A7A7A7A7A7A7A7A5D
:1063A0007A7A7A7A7A7A7A7A7A7A7A7A7A7A7A7A4D
:1063B0007A7A7A7A7A7A7A7A74747474747474746D
:1063C000747474747474747474747474747474748D
:1063D000747474747474747474747474747474747D
:1063E000747474747474747474747474747474746D
:1063F000747474747474747474747474747474745D
:10640000747474747474747474747474747474744C
:10641000747474747474747474747474747474743C
:10642000747474747474747474747474747474742C
:10643000747474747474747474747474747474741C
:10644000747474747474747474747474747474740C
:1064500074747474747474746F6F6F6F6F6F6F6F24
:106460006F6F6F6F6F6F6F6F6F6F6F6F6F6F6F6F3C
:106470006F6F6F6F6F6F6F6F6F6F6F6F6F6F6F6F2C
:106480006F6F6F6F6F6F6F6F6F6F6F6F6F6F6F6F1C
:106490006F6F6F6F6F6F6F6F6F6F6F6F6F6F6F6F0C
:1064A0006F6F6F6F6F6F6F6F6F6F6F6F6F6F6F6FFC
:1064B0006F6F6F6F6F6F6F6F6F6F6F6F6F6F6F6FEC
:1064C0006F6F6F6F6F6F6F6F6F6F6F6F6F6F6F6FDC
:1064D0006F6F6F6F6F6F6F6F6F6F6F6F6F6F6F6FCC
:1064E0006F6F6F6F6F6F6F6F6F6F6F6F6F6F6F6FBC
:1064F0006F6F6F6F6F6F6F6F6A6A6A6A6A6A6A6AD4
:106500006A6A6A6A6A6A6A6A6A6A6A6A6A6A6A6AEB
:106510006A6A6A6A6A6A6A6A6A6A6A6A6A6A6A6ADB
:106520006A6A6A6A6A6A6A6A6A6A6A6A6A6A6A6ACB
:106530006A6A6A6A6A6A6A6A6A6A6A6A6A6A6A6ABB
:106540006A6A6A6A6A6A6A6A6A6A6A6A6A6A6A6AAB
:106550006A6A6A6A6A6A6A6A6A6A6A6A6A6A6A6A9B
:106560006A6A6A6A6A6A6A6A6A6A6A6A6A6A6A6A8B
:106570006A6A6A6A6A6A6A6A6A6A6A6A6A6A6A6A7B
:106580006A6A6A6A6A6A6A6A6A6A6A6A6A6A6A6A6B
:106590006A6A6A6A6A6A6A6A656565656565656583
:1065A000656565656565656565656565656565659B
:1065B000656565656565656565656565656565658B
:1065C000656565656565656565656565656565657B
:1065D000656565656565656565656565656565656B
:1065E000656565656565656565656565656565655B
:1065F000656565656565656565656565656565654B
:10660000656565656565656565656565656565653A
:10661000656565656565656565656565656565652A
:10662000656565656565656565656565656565651A
:10663000656565656565656561616161616161612A
:10664000616161616161616161616161616161613A
:10665000616161616161616161616161616161612A
:10666000616161616161616161616161616161611A
:10667000616161616161616161616161616161610A
:1066800061616161616161616161616161616161FA
:1066900061616161616161616161616161616161EA
:1066A00061616161616161616161616161616161DA
:1066B00061616161616161616161616161616161CA
:1066C00061616161616161616161616161616161BA
:1066D00061616161616161615D5D5D5D5D5D5D5DCA
:1066E0005D5D5D5D5D5D5D5D5D5D5D5D5D5D5D5DDA
:1066F0005D5D5D5D5D5D5D5D5D5D5D5D5D5D5D5DCA
:106700005D5D5D5D5D5D5D5D5D5D5D5D5D5D5D5DB9
:106710005D5D5D5D5D5D5D5D5D5D5D5D5D5D5D5DA9
:106720005D5D5D5D5D5D5D5D5D5D5D5D5D5D5D5D99
:106730005D5D5D5D5D5D5D5D5D5D5D5D5D5D5D5D89
:106740005D5D5D5D5D5D5D5D5D5D5D5D5D5D5D5D79
:106750005D5D5D5D5D5D5D5D5D5D5D5D5D5D5D5D69
:106760005D5D5D5D5D5D5D5D5D5D5D5D5D5D5D5D59
:106770005D5D5D5D5D5D5D5D595959595959595969
:106780005959595959595959595959595959595979
:106790005959595959595959595959595959595969
:1067A0005959595959595959595959595959595959
:1067B0005959595959595959595959595959595949
:1067C0005959595959595959595959595959595939
:1067D0005959595959595959595959595959595929
:1067E0005959595959595959595959595959595919
:1067F0005959595959595959595959595959595909
:1068000059595959595959595959595959595959F8
:106810005959595959595959555555555555555508
:106820005555555555555555555555555555555518
:106830005555555555555555555555555555555508
:1068400055555555555555555555555555555555F8
:1068500055555555555555555555555555555555E8
:1068600055555555555555555555555555555555D8
:1068700055555555555555555555555555555555C8
:1068800055555555555555555555555555555555B8
:1068900055555555555555555555555555555555A8
:1068A0005555555555555555555555555555555598
:1068B00055555555555555555252525252525252A0
:1068C00052525252525252525252525252525252A8
:1068D0005252525252525252525252525252525298
:1068E0005252525252525252525252525252525288
:1068F0005252525252525252525252525252525278
:106900005252525252525252525252525252525267
:106910005252525252525252525252525252525257
:106920005252525252525252525252525252525247
:106930005252525252525252525252525252525237
:106940005252525252525252525252525252525227
:1069500052525252525252524F4F4F4F4F4F4F4F2F
:106960004F4F4F4F4F4F4F4F4F4F4F4F4F4F4F4F37
:106970004F4F4F4F4F4F4F4F4F4F4F4F4F4F4F4F27
:106980004F4F4F4F4F4F4F4F4F4F4F4F4F4F4F4F17
:106990004F4F4F4F4F4F4F4F4F4F4F4F4F4F4F4F07
:1069A0004F4F4F4F4F4F4F4F4F4F4F4F4F4F4F4FF7
:1069B0004F4F4F4F4F4F4F4F4F4F4F4F4F4F4F4FE7
:1069C0004F4F4F4F4F4F4F4F4F4F4F4F4F4F4F4FD7
:1069D0004F4F4F4F4F4F4F4F4F4F4F4F4F4F4F4FC7
:1069E0004F4F4F4F4F4F4F4F4F4F4F4F4F4F4F4FB7
:1069F0004F4F4F4F4F4F4F4F4B4B4B4B4B4B4B4BC7
:106A00004B4B4B4B4B4B4B4B4B4B4B4B4B4B4B4BD6
:106A10004B4B4B4B4B4B4B4B4B4B4B4B4B4B4B4BC6
:106A20004B4B4B4B4B4B4B4B4B4B4B4B4B4B4B4BB6
:106A30004B4B4B4B4B4B4B4B4B4B4B4B4B4B4B4BA6
:106A40004B4B4B4B4B4B4B4B4B4B4B4B4B4B4B4B96
:106A50004B4B4B4B4B4B4B4B4B4B4B4B4B4B4B4B86
:106A60004B4B4B4B4B4B4B4B4B4B4B4B4B4B4B4B76
