:10000000F8FF0020110400007F2800007F28000076
:100010007F2800007F2800007F2800007F28000044
:100020007F2800007F2800007F2800007F28000034
:100030007F2800007F2800007F2800007F28000024
:100040007F2800007F2800007F2800007F28000014
:10040000FFFFFFFFFFFFFFFFFFFFFFFFFEFFFFFFFD
:1004100062B603F05BF9FEE72DE9F0439FB0814639
:100420002698DFF804898DF83B00174600201E4609
:1004300002910B900FF680344FF0FF350AE017F869
:10044000011B0298C8470028029000F09A800B9880
:10045000401C0B90387850B12528F0D100200021A5
:10046000059006910790089109900A9103E00B9876
:100470009AE041F0010117F8010F2028F9D0232854
:100480000DD02B2804D02D2806D030280AD07AE0B1
:1004900041F0020189B2EEE741F00401FAE741F0D0
:1004A0000801F7E741F01001F4E700200D9009E0A2
:1004B0000D98404505DA00EB800302EB4302303A29
:1004C0000D927F1C3A78A2F130000A28F0D33A78D6
:1004D0002E2A18BF0C9523D117F8010F2A2807D10F
:1004E000306830607F1C50F8042B30600C9217E0AD
:1004F0002D280CBF17F8010B002000220C920AE0F7
:1005000040B90C9A424505DA02EB820203EB420342
:10051000303B0C937F1C3B78A3F130020A2AEFD3C7
:10052000ADF838102046397800F07AFD08B117F898
:10053000010B8DF83A009DF83A00682804BF39781D
:10054000682903D162208DF83A0007E06C2804BFC7
:1005500038786C2803D171218DF83A107F1C10A8CF
:100560000490324617F8013B6946484600F05CF8B3
:1005700038B910AA6946484600F084F900287FF58A
:1005800069AF284610E02A288FD13068306050F8D3
:10059000042B3060002A0D9204D5524241F0040130
:1005A0000D9289B27F1C92E71FB0BDE8F0836228EC
:1005B00020D0682811D06A2803D06C2827D0712851
:1005C00025D10868C01D20F007000860D0E900238D
:1005D00008300860194610467047002A0A680A6009
:1005E000106803D0121D0A6000B217E0121D0A60E5
:1005F00080B217E0002A0A680A60106803D0121D52
:100600000A6040B20AE0121D0A60C0B20AE0002A85
:100610000A680A60106803D0121D0A60C11770478B
:10062000121D0A600021704770B51C460D46B4F1DA
:1006300025002E69114600F013812038022865D963
:10064000133841D00B3816D0401E1ED0401E022851
:100650005CD9001F19D0401F00F08380401E33D0AA
:10066000401E00F0CD80C01E00F0D880801E2BD030
:10067000C01E29D0FAE06869421C6A610A680A60F3
:1006800052F8043B0A603354FAE095F83A0001222C
:10069000FFF78DFFC5E900010023994204DA68697C
:1006A000411C69612D210DE0288F810704D56869FF
:1006B000411C69612B2105E0C00722D56869411CF6
:1006C0006961202131541CE095F83A000022FFF7BF
:1006D0006EFFC5E9000195F83800010711D5D5E98D
:1006E00000230020834208BF82420AD044F0200049
:1006F000782806D1686930213154401C411C696159
:100700003454214668693044E86083E00868C01DBD
:1007100020F007000860D0E9002308300860C5E930
:100720000023D5E90001C80F04D06869411C696144
:100730002D210DE0288F810704D56869411C69616E
:100740002B2105E0C00704D56869411C696120219F
:10075000315468693044E8602146284600F0C1F908
:100760008EE005F13A02507820B14FF0FF340FF6D9
:1007700050005EE01078622808D0682824D06A28EB
:1007800012D06C282ED071280ED02BE00A680A6097
:1007900052F8040B0A6020B94FF0FF340FF638000E
:1007A00047E0E96A01706BE00A680A6052F8040BDE
:1007B0000A6020B94FF0FF340FF61C0039E0EA6AF6
:1007C000D317C0E900235BE00A680A6052F8040B03
:1007D0000A6020B94FF0FF340FF2FC7029E0E96A9B
:1007E00001804DE00A680A6052F8040B0A6020B9E3
:1007F0004FF0FF340FF2E0701BE0E96A01603FE068
:100800000A680A6052F8040B0A600021C5E9000179
:10081000EE607821284600F0BCF831E008680860F6
:1008200050F8044B0860EC603CB94FF0FF340FF215
:10083000C07000F001FC201A70BD2E6B002E04D594
:10084000204600F01BFC044608E03246002120460A
:1008500000F030FC002814BF041B3446AC610FE0EC
:100860006869411C69612521315409E06869411CAE
:10087000696125223254200002D0481C68617454FA
:10088000002070BD2DE9F0410F4682B00646796B1D
:100890007869BC6A091A386A091AB869091A786A43
:1008A000091AF869091A97F838000C1B4107904695
:1008B0000FD42021002C8DF800100ADD25460123DD
:1008C0006A463946304600F05FFB00285DD16D1E58
:1008D000F5D17B6942463946304600F055FB002889
:1008E00053D130208DF800003D6A002D09DD012331
:1008F0006A463946304600F047FB002845D16D1E58
:10090000F5D1BB69FA683946304600F03DFB002856
:100910003BD130208DF800007D6A002D08DD0123D9
:100920006A463946304600F02FFB70BB6D1EF6D18B
:10093000F868B969FB6942183946304600F024FB73
:1009400018BB30208DF80000BD6A002D08DD0123A2
:100950006A463946304600F017FBB0B96D1EF6D135
:1009600097F8380041070DD52021002C8DF8001094
:1009700008DD01236A463946304600F005FB20B900
:10098000641EF6D10020BDE8F6814FF0FF30BDE8CF
:10099000F6812DE9F04704468A462569BAF16F0FC2
:1009A00008BF082705D04AF02000782814BF0A277E
:1009B00010273C26D4E90001BAF1640F18BFBAF140
:1009C000690F8046894607D10B4600218B4203DA26
:1009D000D8F1000869EB49090020814508BF80452E
:1009E0001FD1206BE8B9082F47D194F838000107D0
:1009F00043D530203B2685F83B003EE000280ED54D
:100A000094F8380000F01400102808D1626B606977
:100A1000121A206A121A561A002EC8BF2662BDE8A2
:100A2000F087404649463A46FB1700F06FFB3032EC
:100A3000761ED2B23A2AA4BFAAF151008218AA5552
:100A4000404649463A46FB1700F060FB804689461F
:100A50000020814508BF804503D0E068A91988427D
:100A6000DFD3082F09D194F83800010705D5A95D17
:100A7000302902D0761E3020A855A819E060C6F1B2
:100A80003C01206BA1618142B8DA411A21624FF624
:100A9000EF70218F01402187BDE8F0872DE9D04319
:100AA00006460F4614464FF00008DFF8809212E029
:100AB000E00707D542464B463046394600F09EFBDC
:100AC00006460F464046494642464B4600F096FBD6
:100AD000641080468946002CEAD130463946BDE88C
:100AE000D0832DE9F04F04468FB0206BD4E9009AF3
:100AF0000028884604AD48BF062005D404BF48F04E
:100B00002000672801D101202063D4E90023580088
:100B10004015401C0DD119030BD0A8F16101032031
:100B20001A29A06102D20FF2E44110E00FF2E04175
:100B30000DE058004015401C0ED119030CD1A8F14E
:100B4000610103201A29A06116D30FF2CC41E0689D
:100B5000032200F025FCE3E0CDE9022323F000416D
:100B6000B1F5801F11D20026B14208BFB2420196F2
:100B700005D1DDE9020118E00FF29841E7E7DDE970
:100B8000020101AA00F060FC08E0694E06EB115674
:100B9000684901960B40684910461943019F674A0E
:100BA00047F29756774397FBF2F6C4E900010246F5
:100BB00021F000430020834204BF8242002300F062
:100BC000A780484651460022002300F075FC38BF3C
:100BD0008AF0004A3246D2F10702019603DD5146FF
:100BE000FFF75CFF0AE0524200205549FFF756FF2D
:100BF00002460B464846514600F076FC814648F0D6
:100C0000200BBBF1660F206B06BF019E0A3606263D
:100C10003618142EC8BF142630208A468DF81000CE
:100C20000DF11107002E33DD4846514600F080FDDE
:100C300001460A4607F1080304200A27B2FBF7F72A
:100C400007EB8705A2EB4502303203F8012C0A229C
:100C5000B7FBF2F202EB8205A7EB45073037401EE7
:100C600003F8027DE9D1083E002E03F10807D9DD23
:100C7000084600F071FD02460B464846514600F01A
:100C800079FD00222F4B00F0B9FA81468A46CBE766
:100C90000DF111003F1A0DF1110504E00198401EFD
:100CA0007F1E01906D1C28783028F7D0BBF1660FAD
:100CB00002D10198401C04E0BBF1650F0CBF01207C
:100CC0000020236BC3189F42B8BF7B1E002B1ED48D
:100CD000BB4204DAE85C3528A8BF392000DA3020AE
:100CE00019466A1E02EB010900E05B1E19F801A912
:100CF000491E8245F9D0392802D1685C401C6854ED
:100D0000002904D50198401C15465B1C01900198F0
:100D100000B200901BB22A464146204600F014F86B
:100D20000FB0BDE8F08F0000CBCCCC0C000024400D
:100D300002FCFFFFFFFF0F800000E03FA0860100E4
:100D40000000F03F84D797412DE9F04784B0054675
:100D5000894692461F4600F07FFD002F406A2E6BA9
:100D600090F8008002DC01270FF2B02ABDF9304074
:100D700049F02000662808BF641C13D0672840F0A3
:100D8000898014F1040F74DBB44272DA95F83800EC
:100D9000641C010702D4B742B8BF3E4624B2361BDA
:100DA00048BF002624B2E868A969002C22DC4A1C4E
:100DB00030234354002E03DC95F83800010703D597
:100DC000E86800F80280521CE642B8BF744224B2C0
:100DD000A6196042BE42B8BF3746AA6168623FB2F8
:100DE000EF61E868AB693A465146184400F0D8FA1A
:100DF000F61B18E022469742084416DA3A46514656
:100E000000F0CEFAA9697918E01B002EA96168628A
:100E100003DC95F83800020705D5E86800F8018082
:100E2000E869401CE861AE6297E0514600F0B8FA0C
:100E3000A86920183F1B002E03DC95F838100A071C
:100E400003D5E96801F80080401CA8613FB2BE42AA
:100E5000B8BF3746E868AB693FB23A460AEB0401CF
:100E6000184400F09DFAA8693818A861F61B6E6254
:100E700073E0B74204DA95F838100A0758BF3E46C7
:100E8000761E48BF0026B9F1670F0CBF4FF0650909
:100E90004FF04509A969EB68481CA861002E1AF8B3
:100EA000012B5A5403DC95F838100A0717D5E96866
:100EB000431CAB6101F80080002E10DD7F1E3FB2A5
:100EC000BE42B8BF3746E8683FB23A46514618447A
:100ED00000F066FAA8693818A861F61B6E62E86827
:100EE000A9690844002C80F8009004D42B2141709B
:100EF00000F1020A04E02D21417000F1020A64426F
:100F000000206A460AE021460A2391FBF3F404EB31
:100F10008403A1EB430102F8011B401C24B2002C06
:100F2000F1DC012806DC49F02001652904BF3021ED
:100F30000AF8011B48B930200AF8010B07E0401EEF
:100F40001DF8001030310AF8011B0028F7DCE868B2
:100F5000A9690844AAEB0000E86195F8380000F0A0
:100F6000140010280DD16969A8694118686A4118F0
:100F7000E8694118A86A4118686B8142BCBF411AF0
:100F8000296204B0BDE8F087F8B505460E4617465D
:100F90001C46002074B117F8011BB068A847B06068
:100FA00030B1F06A401CF0620020641EF3D1F2BD43
:100FB0004FF0FF30F2BD0000686A6C747A4C00009C
:100FC0007072696E74665F733A20256E206469736F
:100FD000616C6C6F776564007072696E74663A203C
:100FE00062616420256E20617267756D656E7400A4
:100FF0007072696E74665F733A2062616420257353
:1010000020617267756D656E740000006E616E0020
:101010004E414E00696E6600494E460030000000A9
:101020000278C9B28A421AB11CBF10F8012FF9E741
:1010300018BF00207047000080B508B90FF21C00EF
:1010400005490B681BB122220021984701E000F0FE
:1010500009FC222002BD0000640EFF1F636F6E7347
:10106000747261696E742068616E646C65723A2096
:10107000626164206D6573736167650000F101034F
:10108000810704D010F8011B89B18107FAD10268E9
:10109000B2F10131914311F0803F04BF50F8042FA9
:1010A000F6E710F8011B11B110F8011BFBE7C01A9D
:1010B00070470000C9B2830706D0521E22D310F831
:1010C000013B9942F7D11FE0083A13D302F1040221
:1010D00041EA012141EA014150F8043B121F21BFBE
:1010E0004B40A3F1013C2CEA030C1CF0803FF3D0F1
:1010F000C9B2001F083210F8013B521E28BF91EA06
:10110000030FF8D818BF0120401E70471B4213D1AF
:10111000094236D12AB18446B0FBF2F002FB10C27C
:10112000704700F0A3BBFCD30022002370470B00E4
:101130000200002100207047904271EB030CF6D3AF
:1011400070B5B1FA81F4B3FA83F52C1BA340C4F156
:10115000200532FA05F63343A2405FF00046E64030
:1011600002E05B085FEA3202841A71EB030524BFD8
:10117000204629467641F4D302000B0030000021BE
:1011800070BD012ACFD970B5140C20D0B1FA81F40A
:10119000B2FA82F5C4F120046419B4F12006D6D362
:1011A000B2405FF00044F440002502E052085FEADC
:1011B0003303C61A71EB020E24BF304671466441F8
:1011C0006D41F3D302000B002000290070BD0C46D6
:1011D000B1FBF2F102FB11452D0445EA1045B5FBC8
:1011E000F2F402FB145580B240EA0545B5FBF2F07B
:1011F00002FB105240EA044070BD0000B0B581EA25
:10120000030C0CF0004C40F2FF7515EA11541DBFA1
:1012100015EA1357AC42AF4239E0E41923EA4553CB
:1012200043F48013C90241F0004141EA505EC70215
:101230001100A7FB020200284FF00000EEFB012086
:101240004FF00001E3FB072118BF42F001024018F4
:1012500000214941E3FB0E01A4F580640F0302D293
:1012600052004041494154F101046CDD470872F1DC
:10127000004250F1000051EB0451A1F580115CBF18
:1012800041EA0C01B0BD4CEA05510020B0BD05EAB1
:101290001357AC4214BFAF4241E050EA410E1CBFAD
:1012A00052EA430E02E061460020B0BD24423C44B5
:1012B0001BD15FEA070EF6D0090302BF01460020EA
:1012C000AEF1140EB1FA81F7AEEB070401FA07FE96
:1012D0000C37C7F1200100FA07F7C8404EEA000EAC
:1012E00023EA455343F48013A2E733F00043B3FAF3
:1012F00083F704BFB2FA82FE77440B3FE41BB7F1D9
:10130000200E2FBF02FA0EF3BB40C7F1200E22FAC7
:101310000EFE38BF43EA0E03BA40641C82E750EA6F
:10132000410E14BF52EA430E6FF000014FF4001754
:1013300017EB430F8ABF194617EB410FB5E74CEA8D
:1013400005510020B0BDD4F10104B4F120070FDA3B
:10135000C4F12007520828BF42F0010210FA07F535
:1013600001FA07F7E1BF2A43E0403843E1400FE0CC
:10137000352C98DCC7F1200452EA400220FA07F22B
:1013800018BF42F0010231FA07F0A1400A430021E0
:1013900072F1004250F1000051EB0C01B0BD0000B1
:1013A00062B38B0708D0521E11F8013B00F8013BD5
:1013B00000F024808B07F6D1830740F0208000BF27
:1013C000103A07D330B4B1E83810103AA0E838101A
:1013D000F9D230BC530724BFB1E80810A0E80810C8
:1013E00044BF51F8043B40F8043BD20724BF31F816
:1013F000022B20F8022B44BF0B7803707047121F9A
:1014000017D35B0009D151F8043B20F8023B1B0CB9
:10141000121F20F8023BF6D20BE051F8043B00F813
:10142000013B1B0A20F8023B1B0C121F00F8013B7A
:10143000F3D238BF121D521E24BF11F8013B00F831
:10144000013BF8D87047000010B5144600F002F8D0
:10145000226010BDC1F30A5343B14A0012F5001FC8
:1014600028D2A3F2FE32A1EB0251704750EA410CA0
:1014700020D001F0004C31EA0C01B1FA81F204BF36
:10148000B0FA80F3D2180B3AB2F120032CBF00FA65
:1014900003F1914041EA0C013EBFC2F1200C20FA59
:1014A0000CF319439040524240F2FD33D21A01EB43
:1014B00003517047002270474FF4001C1CEB410F92
:1014C00094BF1CEB430F09E041EA030C50EA4C0CBB
:1014D00052EA0C0C03D2994208BF9042704714BFE5
:1014E0008B42824270470000F0B540F2FF7581EAFE
:1014F000030C0CF0004C15EA11541DBF15EA1357EC
:10150000AC42AF42E5E0BC41C1F31301C3F31303A6
:10151000801A994143F4801304D2641E400049416B
:1015200080185941C90241EA5051B1FBF3F603FB5F
:101530001611A2FB0675D7EBC020A94102D2761E78
:1015400080185941C90241EA5051B1FBF3FE03FB37
:101550001E11A2FB0E75D7EBC020A94103D2AEF13C
:10156000010E80185941890241EA9051760546EAF8
:101570008E2EB1FBF3F603FB1611A2FB0675D7EB1B
:101580008020A94102D2761E80185941C90241EA41
:1015900050514EEA060EB1FBF3F603FB1611A2FB07
:1015A0000675D7EBC020A94102D2761E801859419A
:1015B000C90241EA5051B1FBF3F703FB1711A2FB3B
:1015C0000735D3EBC020A94167F100070CBF0042EB
:1015D00047F0010766F3D5274FEA1E31B80814F526
:1015E000806412DDBD0775F1004250EB0E5051EBE7
:1015F000045111F5801F5CBF41EA0C01F0BD4CF0B5
:101600007F6141F0E0410020F0BDBD076D0840EA78
:101610000E5041F48011D4F10104B4F120060ADA2D
:10162000C4F120060200E04001FA06F3E14018434D
:10163000B24015430EE0342C13DCC6F1200445EA19
:1016400040056D0820FA06F2154321FA06F0A14084
:101650000D43002175F1004250F1000051EB0C01E7
:10166000F0BD00205FEA0C01F0BDCFB992185B41DC
:10167000B3FA83F704BFB2FA82F6BF190B3FB7F192
:1016800020062FBF02FA06F3BB40C7F1200622FA5C
:1016900006F638BF3343BA401CB1E419641E33E781
:1016A0007F4231F00041B1FA81F404BFB0FA80F614
:1016B000A4190B3CB4F120062FBF00FA06F1A1409B
:1016C000C4F1200620FA06F638BF3143A0403C1B87
:1016D0001AE7AC421ABF05EA1357AF4212E050EACC
:1016E00041061CBF52EA4306BFE750EA41073046B5
:1016F00061461CBF41EA0551F0BD52EA430C08BFE8
:10170000C143F0BD00204FF4001616EB410F98BF07
:1017100016EB430F08BF16EB410F24BFC14305E092
:1017200016EB430F0CBF61464CEA0551F0BD0000BB
:10173000400D491840EA81200CD2490DA1F5806185
:10174000491C40F0004005DBD1F11F0154BFC840E7
:10175000C017704700207047014648B1B0FA80F1C9
:101760008840C91CC1F58461090501EBD021400501
:101770007047000070B44FF0004591EA030F40F14C
:1017800077806B40841A71EB030603D2001BB141D2
:10179000121973414FF4001C1CEB410F34BF7CEB5A
:1017A000430442E00C0DA4EB1356352E4FDC45EA02
:1017B000C323DB0A45EAC121C912B6F120050DDDBC
:1017C00063FA05F6EB4086EA0305124218BF45F0BE
:1017D0000105C01851F100010CD213E062FA06F5C0
:1017E000F2405540F3415A40B340F3405A4080180C
:1017F000594107D349085FEA30005FEA350528BF41
:1018000045F0010501F58011420875F1004250F1E3
:10181000000041EB04514E0016F5001F70BC38BFAC
:1018200070470020090D090570471CEB410F10D2CD
:1018300052EA43060BD0BCEB410F05D80C0DAB436D
:10184000661E342EB6DD02E0AB438018594170BCF1
:10185000704770BC704700000148704700000000EE
:10186000D00BFF1F012000F0B7B800007047000048
:10187000841A71EB030604D26E40001BB1411219A9
:1018800073414FF4001C1CEB410F34BF7CEB43064B
:1018900082E00C0DA4EB1356362E7BDC012E45EABC
:1018A000C32341DC43EA525312BFD20292025B08C7
:1018B000240545EAC12141EA5051D2EBC0209941AB
:1018C00025D407D1B0FA80F610FA06F162D00020D4
:1018D000203608E0B1FA81F6B140C6F1200220FAC4
:1018E00002F21143B0404FEAF474B4EB465434F0C2
:1018F00001064FEA74040AD8D6F50016760D04F0F6
:101900000044F04061FA06F25040F1404840C00AFD
:1019100040EA415021F0004128BF5FEA500550F1F4
:10192000000044EBD12135E0DB0A45EAC121C90AB8
:10193000B6F120050EDD42EA0242120CC5F1200686
:1019400003FA06F6EB4042EA06056D42984161F162
:1019500000010DE062FA06F5F240554063FA06FC1C
:1019600082EA0C02F3405A406D42904161EB030160
:1019700011F4801F05D1641E620502D06D00404144
:10198000494121F48011430875F1004350F10000F2
:1019900041EB045170BC70471CEB410F15D223F092
:1019A000004352EA43060BD04FEA4C0CBCEB410F0C
:1019B00004D80C0D661E342EB7DDEBE7801A994172
:1019C00050EA410608BF0021E4E708BF1CEB430FC3
:1019D00028BF6FF00001DDE7202109032631182020
:1019E000ABBEF9E7000000000000000000000000AE
:1019F00000000000000000000000000000000000E7
:101A000000004E6F6E4D61736B61626C650000008B
:101A100000486172644661756C740000000000004B
:101A20004D656D4D616E6167656D656E7400004258
:101A300075734661756C74000000000000005573FA
:101A40006167654661756C7400000000000000006D
:101A50000000000000000000000000000000000086
:101A60000000000000000000000000000000000076
:101A70000000000000000000000000000000000066
:101A8000000000000000000000535643616C6C0031
:101A9000000000000000000044656275674D6F6E35
:101AA00069746F7200000000000000000000000078
:101AB00000000000000050656E64535600000000F6
:101AC00000000000005379735469636B000000004C
:101AD00000000000444D4130000000000000000004
:101AE000000000444D4131000000000000000000F3
:101AF0000000444D413200000000000000000000E2
:101B000000444D41330000000000000000000000D0
:101B1000444D41340000000000000000000000447B
:101B20004D41350000000000000000000000444D61
:101B300041360000000000000000000000444D415C
:101B4000370000000000000000000000444D413854
:101B50000000000000000000000000444D4139007A
:101B600000000000000000000000444D4131300042
:101B7000000000000000000000444D413131000031
:101B80000000000000000000444D41313200000020
:101B900000000000000000444D413133000000000F
:101BA000000000000000444D4131340000000000FE
:101BB0000000000000444D413135000000000000ED
:101BC00000000000444D415F4572726F72000000DA
:101BD0000000004D434D0000000000000000000028
:101BE00000004654464C00000000000000000000C9
:101BF00000526561645F436F6C6C6973696F6E005E
:101C00004C56445F4C565700000000000000004C4A
:101C10004C57000000000000000000000000576169
:101C2000746368646F6700000000000000524E4754
:101C300000000000000000000000000049324330B6
:101C400000000000000000000000004932433100A5
:101C50000000000000000000000053504930000068
:101C60000000000000000000005350493100000057
:101C70000000000000000000535049320000000046
:101C80000000000000000043414E305F4F525F4DA6
:101C9000425F6275660043414E305F4275735F4F2D
:101CA000666600000043414E305F4572726F7200FD
:101CB0000000000043414E305F54785F5761726E00
:101CC000696E6743414E305F52785F5761726E694B
:101CD0006E6743414E305F57616B655F5570000022
:101CE000005265736572766564353100000000004E
:101CF00052657365727665643532000000000043FA
:101D0000414E315F4F525F4D425F62756600434105
:101D10004E315F4275735F4F666600000043414E6F
:101D2000315F4572726F72000000000043414E3116
:101D30005F54785F5761726E696E6743414E315FE1
:101D400052785F5761726E696E6743414E315F57DB
:101D5000616B655F55700000005265736572766552
:101D60006435390000000000526573657276656461
:101D70003630000000000055415254305F52585F29
:101D800054580000000055415254305F45525200F3
:101D9000000000000055415254315F52585F5458C2
:101DA0000000000055415254315F4552520000007E
:101DB00000000055415254325F52585F54580000A1
:101DC000000055415254325F45525200000000005D
:101DD0000055415254335F52585F54580000000080
:101DE00055415254335F45525200000000000055E7
:101DF000415254345F52585F54580000000055411E
:101E00005254345F455252000000000000554152C8
:101E100054355F52585F54580000000055415254E9
:101E2000355F45525200000000000041444330003D
:101E300000000000000000000000414443310000A9
:101E4000000000000000000000434D503000000082
:101E50000000000000000000434D50310000000071
:101E600000000000000000434D5032000000000060
:101E700000000000000046544D300000000000004B
:101E8000000000000046544D31000000000000003A
:101E90000000000046544D32000000000000000029
:101EA000000000434D54000000000000000000004E
:101EB0000000525443000000000000000000000039
:101EC0000052657365727665643833000000000067
:101ED0005049543000000000000000000000005095
:101EE000495431000000000000000000000050498B
:101EF000543200000000000000000000005049546F
:101F00003300000000000000000000005044423098
:101F100000000000000000000000005553423000A7
:101F200000000000000000000000555342444344FC
:101F3000000000000000000000454E45545F3135B0
:101F400038385F54696D6572454E45545F5472610F
:101F50006E736D69740000454E45545F526563654C
:101F6000697665000000454E45545F4572726F7298
:101F70000000000000493253300000000000000063
:101F8000000000005344484300000000000000002F
:101F90000000004441433000000000000000000049
:101FA0000000444143310000000000000000000038
:101FB0000054534930000000000000000000000001
:101FC0004D43470000000000000000000000004CEE
:101FD0005054696D657200000000000000005265F9
:101FE00073657276656431303200000000504F52E4
:101FF000544100000000000000000000504F525407
:102000004200000000000000000000504F52544306
:1020100000000000000000000000504F5254440037
:10202000000000000000000000504F525445000026
:102030000000000000000000526573657276656460
:102040003130380000000052657365727665643186
:102050003039000000005265736572766564313175
:10206000300000000052657365727665643131316D
:10207000000000005265736572766564313132008C
:10208000000000526573657276656431313300007B
:10209000000052657365727665643131340000006A
:1020A0000052657365727665643131350000000059
:1020B00052657365727665643131360000000052F6
:1020C00065736572766564313137000000005265D2
:1020D00073657276656431313800000000526573B3
:1020E000657276656431313900000000008003407C
:1020F0000090034000800B4000900B4000F00F4028
:1021000040F00F4080F00F40C0F00F4000F10F4052
:1021100066000A1D32000701640007106E00040605
:10212000780004088200040A8C00040C9600040E57
:10213000A0000410AA000412B4000414BE00041687
:10214000C8000418D200041ADC00041CE100041DBD
:10215000E600041EEB00041FF4000317FA00031846
:10216000130101062C01021400010908009004402B
:1021700000A0044000B0044000C0044000D004406F
:1021800000A0064000B0064000C0064000D0064057
:1021900000A00E4000B00E406A6E6B6C676D4E4F33
:1021A00034353637603C0000603C0000603C000085
:1021B000603C0000603C0000603C0000603C0000AF
:1021C000FFFFFFFFFFFFFFFF623C0000603C0000DD
:1021D000603C0000FFFFFFFFFFFF00000204010161
:1021E000680EFF1FB80EFF1F680EFF1F680EFF1F4F
:1021F00000000000680EFF1F000000004C0CFF1FD5
:10220000380CFF1F0000000000000000000000006C
:1022100000000000000000000000000000000000BE
:1022200000000000A406010038B504000D0064B2EF
:10223000002C06D0022C69D04CD3032C00F08280F5
:10224000C7E0DFF86804006850F08070DFF85C14C5
:1022500008606DB2002D0BD0022D15D00ED3042DC9
:102260001ED017D3062D27D020D3072D2AD02FE03C
:102270004FF48061412000F025FA2AE04FF480619C
:10228000422000F01FFA24E04FF44071052000F0D6
:1022900019FA1EE04FF44071062000F013FA18E01E
:1022A0004FF44071072000F00DFA12E04FF4806106
:1022B000652000F007FA0CE04FF48061662000F022
:1022C00001FA06E04FF48061672000F0FBF900E0BE
:1022D0007FE07EE0DFF8D403006850F00070DFF8A4
:1022E000CC1308606DB2002D02D0012D06D00BE09A
:1022F0004FF440710C2000F0E5F906E04FF4407116
:102300000D2000F0DFF900E063E062E0DFF8A003F9
:10231000006850F08070DFF8981308606DB2002DEF
:1023200002D0012D06D00BE04FF440710A2000F0DE
:10233000C9F906E04FF440710B2000F0C3F900E04A
:1023400047E046E0DFF86803006850F00070DFF80F
:10235000601308606DB2002D0BD0022D15D00ED386
:10236000042D1ED017D3062D27D020D3072D2AD019
:102370002EE04FF4C061852000F0A4F928E04FF46E
:10238000C061862000F09EF922E04FF4C0618720F2
:1023900000F098F91CE04FF4C061882000F092F939
:1023A00016E04FF4C061892000F08CF910E04FF482
:1023B0004071492000F086F90AE04FF4C0618B209B
:1023C00000F080F904E04FF4C0618C2000F07AF94D
:1023D000FFE731BD2DE9F84F04000D0016001F0086
:1023E00064B2002C11D064B2012C02D064B2022C71
:1023F00002D16DB2022D08DB64B2032C05D040F28D
:102400008511DFF8B00200F0D0F9290049B22000B0
:1024100040B2FFF709FFDFF8A00201684FF47A70BD
:10242000414388464046000CB0FBF6F08146002050
:1024300082461FFA89F9484650FA0AF0012802DB61
:102440001AF1010AF5E75FFA8AFABAF1080F05DB1B
:102450004FF4D071DFF85C0200F0A7F9404630FA83
:102460000AF0B0FBF6F081461FFA89F9DFF84C025A
:1024700064B240F8249064B2002C05D0022C1BD02A
:102480000ED3032C24D02FE01FFA89F919F1010093
:1024900000FB07F042F21071B0FBF1F0834623E03D
:1024A0001FFA89F919F1010000FB07F042F21071DF
:1024B000B0FBF1F0834617E01FFA89F919F101002A
:1024C00000FB07F042F21071B0FBF1F083460BE025
:1024D0001FFA89F919F1010000FB07F042F21071AF
:1024E000B0FBF1F08346FFE7DFF8D40164B250F8A7
:1024F00024006DB200EBC500DFF8C41164B251F8DE
:1025000024106DB201EBC501C96831F00401C1604E
:10251000DFF8AC0164B250F824006DB200EBC500E6
:102520002821C1605FFA8AFA1AF0070050F008000B
:10253000DFF88C1164B251F8241008601FFA89F991
:10254000DFF87C0164B250F82400C0F80890002045
:10255000DFF86C1164B251F82410C864DFF8600130
:1025600064B250F824006DB200EBC5001FFA8BFB7B
:10257000C0F810B00020DFF8481164B251F8241000
:102580004860BDE8F18F2DE9F04104000D00160010
:102590005FF0000864B2002C11D064B2012C02D0AC
:1025A00064B2022C02D16DB2022D08DB64B2032C9E
:1025B00005D04FF4F371DFF8FC0000F0F6F864B2D8
:1025C000002C05D0022C19D00DD3032C21D02BE0E8
:1025D00042F21170864205D34FF4F671DFF8D40051
:1025E00000F0E3F820E042F21170864205D34FF488
:1025F000F871DFF8C00000F0D8F815E042F2117071
:10260000864205D34FF4FA71DFF8A80000F0CDF848
:102610000AE042F21170864205D340F2F911DFF868
:10262000940000F0C2F8FFE7DFF8900064B250F8C1
:102630002400804664B2002C05D0022C17D00CD3A5
:10264000032C1ED027E018F1010000FB06F042F237
:102650001071B0FBF1F007001DE018F1010000FB64
:1026600006F042F21071B0FBF1F0070013E018F130
:10267000010000FB06F042F21071B0FBF1F0070020
:1026800009E018F1010000FB06F042F21071B0FB06
:10269000F1F00700FFE7DFF8280064B250F82400EB
:1026A0006DB200EBC5000761BDE8F0813C800440DD
:1026B0003080044044390000600EFF1F480EFF1FA9
:1026C000180BFF1F10B42C4A13684FF4007402005B
:1026D000D2B2520994402343274A1360274AC0B21A
:1026E00003005B1152F82330012410F01F029440C4
:1026F000C3F8A040214AC0B203005B1152F8232066
:10270000C0B210F01F0342F8231010BC704710B481
:10271000194A13684FF400740200D2B2520994406F
:102720002343154A1360154AC0B203005B1152F8E7
:102730002330012410F01F029440C3F8A04031F46C
:10274000E0610E4AC0B203005B1152F82320C0B210
:1027500010F01F0352F8232012F4E0621143074ADD
:10276000C0B203005B1152F82320C0B210F01F0367
:1027700042F8231010BC704738800440980BFF1FAC
:10278000DFF800F0850CFF1FDFF800F0A90CFF1F39
:10279000BFF34F8F4748016811F4E0614648014399
:1027A00044480160BFF34F8FFEE738B504000D00C9
:1027B000002000F08FF82A002100404800F0C2F805
:1027C000002000F0A4F84FF47A7000F0EAF8F2E785
:1027D00038B504000D00210049B2032000F045FA8D
:1027E000200032BD10B50024042000F069FA042056
:1027F00000F09CFA002841D1002000F06BF8042082
:1028000000F094FA012801D101200400002000F01A
:102810007EF82B4800F096F84FF4FA7000F0C1F8FB
:10282000E4B2012CEBD1042000F080FA0028E6D1BC
:10283000042000F07BFA002806D1002000F067F8A1
:10284000642000F0AEF8F3E7042000F06FFA0128EE
:1028500006D1002000F05BF8322000F0A2F8F3E788
:10286000184800F06FF8FFF78BFF642000F099F82C
:102870000020FFF789FFFFF78BFFC0E710BD10B501
:1028800011480468012000F025F8012000F03FF80D
:102890000E48E4B20F2101FB04F100EB0102E4B2A7
:1028A00021000B4800F04EF84FF47A7000F079F8F0
:1028B000EBE700000CED00E00400FA05943B00009B
:1028C000383C0000C83B000004ED00E01004FF1F8E
:1028D000303B000010B5040064B2042C07DA01227A
:1028E0000121174864B2005D00F038FA0EE00420C0
:1028F00004002000441E40B2002807D0012201211C
:102900000F4864B2005D00F029FAF2E710BD10B57F
:10291000040064B2042C05DA094864B2005D00F0DA
:102920007CFA0CE0042004002000441E40B2002881
:1029300005D0034864B2005D00F06FFAF4E710BD03
:10294000CC0BFF1F0EB4C0B5024603A800210190B6
:10295000009101AB0121044878440C30FDF75CFD87
:1029600006BC5DF810FB00BFAF12000010B50400FC
:10297000002C15D0B4F1807F03D329210F48FFF735
:1029800014FF00200E4908600E48046000200E4924
:10299000086005200A49086009480068C003FBD5A3
:1029A00010BD10B504002000441E002804D00748C4
:1029B0000068FFF7DBFFF6E710BD0000D438000029
:1029C00010E000E014E000E018E000E0580EFF1F07
:1029D0002DE9F84304000D0064B2002C08D0022C4D
:1029E0002CD018D3042C4FD03BD3052C5FD071E0F2
:1029F000DFF8B402006850F48060DFF8AC120860C1
:102A00004FF440716620FFF75DFE4FF44071672080
:102A1000FFF758FE5EE0DFF89002006850F40060B7
:102A2000DFF8841208604FF440718120FFF74AFEFE
:102A30004FF440718020FFF745FE4BE0DFF868025D
:102A4000006850F48050DFF8601208604FF4407165
:102A50006320FFF737FE4FF440716220FFF732FE2C
:102A600038E0DFF84402006850F40050DFF8381214
:102A700008604FF440715020FFF724FE4FF440717E
:102A80005120FFF71FFE25E0DFF82002006850F418
:102A90008060DFF8181208604FF440714E20FFF795
:102AA00011FE4FF440714F20FFF70CFE12E0DFF8EB
:102AB000FC01006850F40060DFF8F01108604FF48A
:102AC00040718920FFF7FEFD4FF440718820FFF729
:102AD000F9FDFFE7DFF8D80164B250F82400C078B0
:102AE00010F0F300DFF8C81164B251F82410C87078
:102AF000DFF8BC0164B250F824008078DFF8B01130
:102B000064B251F82410887064B2002C02D064B210
:102B1000012C07D1DFF89C0101684FF47A70414322
:102B2000894606E0DFF8900101684FF47A7041436E
:102B300089462801B9FBF0F00600B6B2B6F5005F91
:102B400002DB41F6FF700600B9FBF5F0B6B2B0EB60
:102B500006100700BFB2202F03DBDC215748FFF728
:102B600024FE534864B250F82400007810F0E000CE
:102B70008046C6F3042050EA08004D4964B251F87B
:102B8000241008704A4864B250F82400467048483F
:102B900064B250F82400807A10F0E000804617F00C
:102BA0001F0050EA0800424964B251F824108872AC
:102BB0003F4864B250F82400007C50F088003C4943
:102BC00064B251F824100874394864B250F82400F3
:102BD000C07850F00C00364964B251F82410C87027
:102BE000BDE8F1830200324852B250F82200807DE5
:102BF000002808D02E4852B250F8220090F9070061
:102C00000870012002E000200870002070472DE9C4
:102C1000F04104000D0016005FF0000800200700DE
:102C200042F2107087421AD205EB0801200040B230
:102C3000FFF7D8FF002810D00020070015F9080082
:102C4000002801D140460EE018F10108B045EBD351
:102C5000002005F80800404605E07F1CE0E7002062
:102C600005F808004046BDE8F081114A40B252F82C
:102C7000202012791206F8D50D4A40B252F82020D1
:102C8000D171704738B504000D002878002809D0AC
:102C900095F90000010049B2200040B2FFF7E5FFBE
:102CA0006D1CF2E731BD00003480044028800440F0
:102CB000AC0BFF1F580EFF1F600EFF1F1C3A0000D9
:102CC00010B5040064B2082C0DDA0022002122485D
:102CD00064B2005D00F042F803211F4864B2005D59
:102CE000FFF715FD14E0082004002000441E40B248
:102CF00000280DD000220021174864B2005D00F0CA
:102D00002DF80321144864B2005DFFF700FDECE7E5
:102D100010BD10B50400104864B2005D00F09BF8CF
:102D2000002801D1002000E0012010BD10B50400F2
:102D3000200040B2FFF7EDFF00280AD10A20FFF77C
:102D400030FE200040B2FFF7E4FF002801D1002050
:102D500000E0012010BD0000C40BFF1F70B506008D
:102D60000C0015004FF480713000C0B2FFF7AAFCD0
:102D700064B2002C13D14848F6B23100491150F822
:102D800021104548F6B23200521150F82200426933
:102D9000012316F01F0083409A434A613CE03E48FD
:102DA000F6B23100491150F821103B48F6B232001A
:102DB000521150F822004269012316F01F0083408F
:102DC0001A434A61EDB2002D13D13348F6B23100F7
:102DD000491150F821000168012216F01F008240BD
:102DE00091432D48F6B23200521150F82200016092
:102DF00012E02948F6B23100491150F8210001686B
:102E0000012216F01F00824011432348F6B232001F
:102E1000521150F82200016070BD10B504001E4828
:102E2000E4B22100491150F82100406914F01F015B
:102E3000C840C00703D47B211848FFF7B6FC1648EA
:102E4000E4B22100491150F82110012214F01F00B2
:102E50008240CA6010BD10B504000F48E4B22100E2
:102E6000491150F82100406914F01F01C840C00703
:102E700003D58C210948FFF798FC0748E4B22100EC
:102E8000491150F82100006914F01F04E04010F0CF
:102E9000010010BD00000000280BFF1FB03900002A
:102EA000DFF800F0F90DFF1FDFF8E01340B231F852
:102EB000201040B20128C0F28F8140B2162880F263
:102EC0008B810022DFF8C8331A7089B2652904DAD1
:102ED0000022DFF8BC335A708BE089B2C92904DACA
:102EE0000122DFF8AC335A7083E089B240F22D1230
:102EF000914204DA0222DFF898335A7079E089B2FD
:102F000040F29112914204DA0322DFF884335A70BE
:102F10006FE089B240F2F512914204DA0422DFF840
:102F200070335A7065E089B240F25922914204DA56
:102F30000522DFF85C335A705BE089B240F2BD22B3
:102F4000914204DA0622DFF848335A7051E089B220
:102F500040F22132914204DA0722DFF834335A700A
:102F600047E089B240F28532914204DA0822DFF864
:102F700020335A703DE089B240F2E932914204DADE
:102F80000922DFF80C335A7033E089B240F24D4227
:102F9000914204DA0A22DFF8F8325A7029E089B245
:102FA00040F2B142914204DA0B22DFF8E4325A7067
:102FB0001FE089B240F21552914204DA0C22DFF888
:102FC000D0325A7015E089B240F27952914204DA57
:102FD0000D22DFF8BC325A700BE089B240F2DD52AC
:102FE000914203DA0E22AA4B5A7002E00F22A84B3C
:102FF0005A7089B2332903DA0022A54B9A7078E01F
:1030000089B2652903DA0122A14B9A7071E089B275
:10301000972903DA02229E4B9A706AE089B2C92985
:1030200003DA03229A4B9A7063E089B2FB2903DA30
:103030000422974B9A705CE089B240F22D129142C3
:1030400003DA0522924B9A7053E089B240F25F1284
:10305000914203DA06228E4B9A704AE089B240F21E
:103060009112914203DA0722894B9A7041E089B2AA
:1030700040F2C312914203DA0822854B9A7038E07D
:1030800089B240F2F512914203DA0922804B9A701C
:103090002FE089B240F22722914203DA0A227C4BC8
:1030A0009A7026E089B240F25922914203DA0B224B
:1030B000774B9A701DE089B240F28B22914203DA7D
:1030C0000C22734B9A7014E089B240F2BD229142F7
:1030D00003DA0D226E4B9A700BE089B240F2EF22B8
:1030E000914203DA0E226A4B9A7002E00F22684B7B
:1030F0009A7089B21A2903DA0022654BDA706BE004
:1031000089B2332903DA0122614BDA7064E089B2B3
:103110004C2903DA02225E4BDA705DE089B2652940
:1031200003DA03225A4BDA7056E089B27E2903DAB9
:103130000422574BDA704FE089B2972903DA05224F
:10314000534BDA7048E089B2B02903DA0622504BBB
:10315000DA7041E089B2C92903DA07224C4BDA70F0
:103160003AE089B2E22903DA0822494BDA7033E007
:1031700089B2FB2903DA0922454BDA702CE089B2C7
:10318000B1F58A7F03DA0A22414BDA7024E089B272
:1031900040F22D12914203DA0B223D4BDA701BE014
:1031A00089B2B1F5A37F03DA0C22394BDA7013E050
:1031B00089B240F25F12914203DA0D22344BDA7089
:1031C0000AE089B2B1F5BC7F03DA0E22304BDA7027
:1031D00002E00F222E4BDA70704710B50400200079
:1031E00040B2FFF761FE2B48007810F0FD0029493E
:1031F00008702848007850F0100026490870B82060
:103200002549087025480078C006FBD4234800787B
:10321000C0B2C0F381000228F8D11D48C3781C4811
:1032200082781B4841781A480078FFF739FE174822
:1032300064B200EB8400807810F007001849087031
:10324000124864B200EB8400C07810F01F0050F008
:10325000400014490870114800788006FBD50F48DB
:1032600000784006FBD50C48007810F03F000A4972
:1032700008700A480078C0B2C0F381000328F8D172
:10328000024864B230F82400C0B210BD3C0BFF1FEE
:10329000940BFF1F014006400040064006400640D8
:1032A000044006400540064080B540F2A463642215
:1032B00001210320FFF78EF8002342F21072022151
:1032C0000020FFF787F8002342F21072032100204C
:1032D000FFF780F8002342F2107204210020FFF76C
:1032E00079F8002342F2107205210020FFF772F8EE
:1032F0004FF416510120FFF76BFB00F036F87348CE
:10330000028801210320FFF73EF971480078012867
:1033100014D1002202210020FFF735F900220321F9
:103320000020FFF730F9002204210020FFF72BF9DD
:10333000002205210020FFF726F9DEE70022042104
:103340000020FFF720F94FF4FA6205210020FFF773
:103350001AF94FF4FA6202210020FFF714F9002253
:1033600003210020FFF70FF9C7E710B586B000244E
:10337000092203A90120FFF74AFC0400002C00F0F9
:10338000A0809DF90C0030283ED1002004004F4859
:103390000088401C4D4908804C4800884FF47A71E1
:1033A00090FBF1F030308DF80000484800884FF471
:1033B0007A7190FBF1F201FB1200642190FBF1F0B5
:1033C00030308DF8010041480088642190FBF1F213
:1033D00001FB12000A2190FBF1F030308DF8020061
:1033E0003A4800880A2190FBF1F201FB120001210A
:1033F00090FBF1F030308DF803000A208DF80400C6
:1034000069460120FFF73EFC9DF90C0031283ED1B2
:10341000002004002D480088401E2C4908802B48BD
:1034200000884FF47A7190FBF1F030308DF8000095
:10343000264800884FF47A7190FBF1F201FB1200EC
:10344000642190FBF1F030308DF801001F480088B6
:10345000642190FBF1F201FB12000A2190FBF1F0D4
:1034600030308DF80200194800880A2190FBF1F2F3
:1034700001FB1200012190FBF1F030308DF80300C8
:103480000A208DF8040069460120FFF7FBFB9DF937
:103490000C00612808D10020040001200C490870AC
:1034A0000C490120FFF7EEFB9DF90C00622808D1C2
:1034B0000020040000200649087003A10120FFF746
:1034C000E1FB06B010BD00006F6E0A00500CFF1F3C
:1034D000520CFF1F583C0000DFF800F0AB27000043
:1034E000DFF800F0A3290000F02055490870544887
:1034F00000780006FBD55248007810F0710F01D01B
:10350000002000E00120704780B54E48006850F46C
:1035100000204C4908604A4800780006FBD5F0209E
:10352000474908700A20FFF7DBFF01BD10B582B0E4
:103530000400A4B24FF4805000FB04F00090092076
:10354000414908709DF80200404908709DF801004B
:103550003F4908709DF800003E490870FFF7C4FF1E
:10356000002801D100200EE0A4B2002C0AD15FF0A7
:10357000FF327FF001034FF48161200080B200F040
:1035800003F800E0012016BDF0B583B006000F007F
:1035900014001D00B6B24FF48050BFB200FB06709D
:1035A0000190BFB2082097FBF0F100FB11700028DA
:1035B00003D0EA212848FFF78FFFBFB241F2010094
:1035C000874203DBEC212448FFF786FF9DF80600C5
:1035D0001E4908709DF805001D4908709DF80400FB
:1035E0001C49087000949DF803001C4908709DF860
:1035F00002001B4908709DF801001A4908709DF8E7
:1036000000001949087007200F49087000959DF8BF
:103610000300164908709DF80200154908709DF8CE
:103620000100144908709DF8000013490870FFF765
:103630005BFF002801D1002000E00120FEBD00005A
:103640000000024004F00140070002400600024072
:103650000500024004000240643800000B000240F4
:103660000A00024009000240080002400F00024028
:103670000E0002400D0002400C000240F0B4114E5A
:10368000366834000F4E366856F47F060D4F3E60A4
:103690000E0616F0706656EA0076170517F47007E6
:1036A0003E431F0417F470273E43074F3E60002639
:1036B0003500EDB29D4201D26D1CFAE7014E346037
:1036C000F0BC704700F001404480044080B500F039
:1036D00093F800F02AF800F00AF8FFF783F80122C7
:1036E00001210420FFF73AFBFFF7DEFDFEE780B57E
:1036F0000C20FFF772FD32490860314801684FF431
:103700007A7041432F4801602E4800682E490968AD
:10371000C1F30361491CB0FBF1F02C4908605FF470
:10372000E1310320FFF754F901BD2DE9F8432848A2
:10373000284988420DD000208146B9F5826F08D211
:10374000244850F82900224941F8290019F10109BB
:10375000F3E71F4800F070F81F4804001F480500F9
:103760001F480600701B81464846B0F10109002839
:1037700004D0287820706D1C641CF5E719480700F8
:1037800019488046B8EB070081464846B0F1010968
:10379000002803D0002038707F1CF6E71349144A34
:1037A000144B981A81464846B0F10109002804D00C
:1037B00010780870521C491CF5E7BDE8F183000041
:1037C0005C0EFF1F580EFF1F44800440600EFF1F59
:1037D0000000FF1F000000001004FF1FE41900009C
:1037E00028220000480EFF1FB80EFF1F540CFF1FB9
:1037F000D8340000CC36000080B500F008F80C4842
:1038000001884FF6FE7001400948018001BDEFF3C9
:10381000118072B64CF22051064A11804DF62811E3
:10382000044A1180C0B2002800D162B6704700007F
:10383000002005400E20054010B504004FF4007034
:1038400094FBF0F100FB1140002803D01E21034837
:10385000FEF7ABFF0248046010BD0000883A00008C
:1038600008ED00E0463A5C30315F5FE9A39EE680F8
:103870009DE58DA1E5B094E699BAE883BDE8BDA6C3
:103880005C30305F5FE8B59BE58CBAE8B59B5C3097
:10389000305F4D795F50726F6A6563745F312E30AF
:1038A0005C4D795F5F536D6172744361725CE8884F
:1038B000B5E69CBAE6B58BE8AF955C436869705C89
:1038C0007372635C4D4B36305F666C6173682E6358
:1038D00000000000463A5C30315F5FE9A39EE6805D
:1038E0009DE58DA1E5B094E699BAE883BDE8BDA653
:1038F0005C30305F5FE8B59BE58CBAE8B59B5C3027
:10390000305F4D795F50726F6A6563745F312E303E
:103910005C4D795F5F536D6172744361725CE888DE
:10392000B5E69CBAE6B58BE8AF955C436869705C18
:103930007372635C4D4B36305F5379735469636BBC
:103940002E630000463A5C30315F5FE9A39EE6805B
:103950009DE58DA1E5B094E699BAE883BDE8BDA6E2
:103960005C30305F5FE8B59BE58CBAE8B59B5C30B6
:10397000305F4D795F50726F6A6563745F312E30CE
:103980005C4D795F5F536D6172744361725CE8886E
:10399000B5E69CBAE6B58BE8AF955C436869705CA8
:1039A0007372635C4D4B36305F66746D2E6300003E
:1039B000463A5C30315F5FE9A39EE6809DE58DA1CC
:1039C000E5B094E699BAE883BDE8BDA65C30305F07
:1039D0005FE8B59BE58CBAE8B59B5C30305F4D790C
:1039E0005F50726F6A6563745F312E305C4D795F32
:1039F0005F536D6172744361725CE888B5E69CBA8E
:103A0000E6B58BE8AF955C436869705C7372635C84
:103A10004D4B36305F6770696F2E6300463A5C30FD
:103A2000315F5FE9A39EE6809DE58DA1E5B094E658
:103A300099BAE883BDE8BDA65C30305F5FE8B59B0E
:103A4000E58CBAE8B59B5C30305F4D795F50726FA2
:103A50006A6563745F312E305C4D795F5F536D61D1
:103A600072744361725CE888B5E69CBAE6B58BE88F
:103A7000AF955C436869705C7372635C4D4B363024
:103A80005F756172742E6300463A5C30315F5FE9A6
:103A9000A39EE6809DE58DA1E5B094E699BAE88302
:103AA000BDE8BDA65C30305F5FE8B59BE58CBAE849
:103AB000B59B5C30305F4D795F50726F6A6563749F
:103AC0005F312E305C4D795F5F536D61727443617D
:103AD000725CE888B5E69CBAE6B58BE8AF955C43C6
:103AE0006869705C7372635C6D6973632E63000058
:103AF00019E050F8042BD30744BFA9F101039A1829
:103B0000091F0023042942F8043BF9D25FEA817CB3
:103B1000134604D54FF0000CA2F800C09B1CC90747
:103B200044BF0021197050F8041B0029E1D17047EF
:103B30000A2A2A2A2A64656661756C745F69737241
:103B400020656E7465726564206F6E20766563749F
:103B50006F722025642A2A2A2A2A0A0A25732049F4
:103B60006E746572727570740000000010B50749BC
:103B700079441831064C7C44163404E00A68081D68
:103B8000114488470146A142F8D110BD2C00000025
:103B900038000000417373657274696F6E2066614E
:103BA000696C656420696E202573206174206C69DE
:103BB0006E652025640A000039FFFFFF70000000D9
:103BC000480EFF1F000000000ABDF8D0D0BDE2CBB8
:103BD000F8B2D9D7F7A3ACC7EBD6D8D0C2CBA2C81E
:103BE000EBB9CCBCFE00000000F00BF8002801D0BF
:103BF000FFF7BCFF0020AFF30080FFF755FB00F09C
:103C000002F80120704700F001B80000074638466E
:103C1000FDF7E2FEFBE738B504460D46284600F006
:103C200005F8A84218BF0024204632BD0149FEF71E
:103C3000CFBD00BF080CFF1F0ABDF8C8EBCBC0D139
:103C4000ADBBB7B5C8B4FDA3A1000000AFF30080C1
:103C5000AFF30080FFF7C8FF6F66660A0000000040
:043C600000002E0032
:0400000500003C4D6E
:00000001FF
